{
  "transactions": [
    {
      "hash": "0xf4730d253fcd06c983afe5fba1d9f76b12073fda2e5df18f96ce8ec62253ed4d",
      "transactionType": "CREATE",
      "contractName": "TrustedOracle",
      "contractAddress": "0xe7f1725e7734ce288f8367e1bb143e90bb3f0512",
      "function": null,
      "arguments": null,
      "transaction": {
        "from": "0xf39fd6e51aad88f6f4ce6ab8827279cfffb92266",
        "value": "0x0",
        "input": "0x6080604052348015600e575f5ffd5b50601633601a565b6055565b6001600160a01b0316638b78c6d819819055805f7f8be0079c531659141344cd1fd0a4f28419497f9722a3daafe3b4186f6b6457e08180a350565b6104a8806100625f395ff3fe60806040526004361061009a575f3560e01c80638da5cb5b116100625780638da5cb5b1461010b578063d4b06fb814610136578063f04e283e14610164578063f2fde38b14610177578063f636e0f61461018a578063fee81cf4146101b8575f5ffd5b806303e8d6521461009e57806325692962146100d25780632fdc6cde146100dc57806354d1f13d146100fb578063715018a614610103575b5f5ffd5b3480156100a9575f5ffd5b506100bd6100b83660046103fc565b6101f7565b60405190151581526020015b60405180910390f35b6100da61023a565b005b3480156100e7575f5ffd5b506100da6100f6366004610413565b610287565b6100da6102f6565b6100da61032f565b348015610116575f5ffd5b50638b78c6d819546040516001600160a01b0390911681526020016100c9565b348015610141575f5ffd5b506100bd6101503660046103fc565b5f6020819052908152604090205460ff1681565b6100da610172366004610445565b610342565b6100da610185366004610445565b61037f565b348015610195575f5ffd5b506100bd6101a43660046103fc565b60016020525f908152604090205460ff1681565b3480156101c3575f5ffd5b506101e96101d2366004610445565b63389a75e1600c9081525f91909152602090205490565b6040519081526020016100c9565b5f8181526001602052604081205460ff1661022557604051634aec5ac760e01b815260040160405180910390fd5b505f9081526020819052604090205460ff1690565b5f6202a30067ffffffffffffffff164201905063389a75e1600c52335f52806020600c2055337fdbf36a107da19e49527a7176a1babf963b4b0ff8cde35ee35d6cd8f1f9ac7e1d5f5fa250565b61028f6103a5565b5f82815260208181526040808320805485151560ff19918216811790925560018085529483902080549091169094179093555191825283917f57c39a2480accb4077522f2253a3915afdc67e1ca5883a57957ed61f2f04d023910160405180910390a25050565b63389a75e1600c52335f525f6020600c2055337ffa7b8eab7da67f412cc9575ed43464468f9bfbae89d1675917346ca6d8fe3c925f5fa2565b6103376103a5565b6103405f6103bf565b565b61034a6103a5565b63389a75e1600c52805f526020600c20805442111561037057636f5e88185f526004601cfd5b5f905561037c816103bf565b50565b6103876103a5565b8060601b61039c57637448fbae5f526004601cfd5b61037c816103bf565b638b78c6d819543314610340576382b429005f526004601cfd5b638b78c6d81980546001600160a01b039092169182907f8be0079c531659141344cd1fd0a4f28419497f9722a3daafe3b4186f6b6457e05f80a355565b5f6020828403121561040c575f5ffd5b5035919050565b5f5f60408385031215610424575f5ffd5b823591506020830135801515811461043a575f5ffd5b809150509250929050565b5f60208284031215610455575f5ffd5b81356001600160a01b038116811461046b575f5ffd5b939250505056fea2646970667358221220758a44ba0589aa1e9c5c5158ff502f3cbb50162cde6c15d8d597e83a6706cb0264736f6c634300081e0033",
        "nonce": "0x1",
        "chainId": "0x539",
        "feeToken": null,
        "calls": [],
        "keyType": null,
        "keyData": null
      },
      "additionalContracts": [],
      "isFixedGasLimit": false
    },
    {
      "hash": "0x31ae2a957b019535da3caabf68ff47788e63c4306bc9820b8f3d2639389fb5b0",
      "transactionType": "CREATE",
      "contractName": "MultiVerse",
      "contractAddress": "0x9fe46736679d2d9a65f0992f2272de9f3c7fa6e0",
      "function": null,
      "arguments": null,
      "transaction": {
        "from": "0xf39fd6e51aad88f6f4ce6ab8827279cfffb92266",
        "value": "0x0",
        "input": "0x6080604052348015600e575f5ffd5b506114e78061001c5f395ff3fe608060405234801561000f575f5ffd5b506004361061009b575f3560e01c80639ba730a9116100635780639ba730a91461018a578063a3def9231461019d578063c2a33c1d146101d0578063c48db66a146101e3578063e973955014610243575f5ffd5b80631e9a69501461009f57806341055a76146100c55780635c23bdf5146100da5780637183d24a146100ed5780637564912b1461012e575b5f5ffd5b6100b26100ad3660046111a7565b610285565b6040519081526020015b60405180910390f35b6100d86100d33660046111d1565b61051f565b005b6100d86100e8366004611203565b61080f565b61011e6100fb36600461121a565b6001600160a01b039081165f908152600160208190526040909120015416151590565b60405190151581526020016100bc565b61017a61013c366004611203565b5f9081526020819052604090208054600182015460029092015463ffffffff8216936401000000009092046001600160a01b0316929160ff90911690565b6040516100bc9493929190611270565b6100d86101983660046111d1565b610958565b6101b06101ab3660046111a7565b610b61565b604080516001600160a01b039384168152929091166020830152016100bc565b6100d86101de3660046112a9565b611070565b61021e6101f136600461121a565b600160208190525f918252604090912080549101546001600160a01b03811690600160a01b900460ff1683565b604080519384526001600160a01b0390921660208401521515908201526060016100bc565b6101b06102513660046111a7565b5f908152602081815260408083206001600160a01b0394851684526003019091529020805460019091015490821692911690565b6001600160a01b038083165f90815260016020819052604082209081015491929091166102c5576040516340fe50fd60e01b815260040160405180910390fd5b80545f90815260208190526040902060028082015460ff16908160048111156102f0576102f061123c565b14801561030857506001830154600160a01b900460ff165b1561031557849350610393565b60038160048111156103295761032961123c565b14801561034257506001830154600160a01b900460ff16155b1561034f57849350610393565b60048160048111156103635761036361123c565b0361037a576103736002866112f0565b9350610393565b604051637256f64560e11b815260040160405180910390fd5b6040516323b872dd60e01b81526001600160a01b038716906323b872dd906103c390339030908a9060040161130f565b6020604051808303815f875af11580156103df573d5f5f3e3d5ffd5b505050506040513d601f19601f820116820180604052508101906104039190611333565b50604051630852cd8d60e31b8152600481018690526001600160a01b038716906342966c68906024015f604051808303815f87803b158015610443575f5ffd5b505af1158015610455573d5f5f3e3d5ffd5b50505050600183015460405163a9059cbb60e01b8152336004820152602481018690526001600160a01b039091169063a9059cbb906044016020604051808303815f875af11580156104a9573d5f5f3e3d5ffd5b505050506040513d601f19601f820116820180604052508101906104cd9190611333565b50825460408051878152602081018790526001600160a01b0389169133917fae1d804a86b6ba2a7725d9824d4ccb4e7f9a55e7a1bf4379c26692ce5ad00665910160405180910390a450505092915050565b5f8181526020819052604090206001600282015460ff1660048111156105475761054761123c565b146105655760405163239dd4ad60e11b815260040160405180910390fd5b6001600160a01b038085165f908152600383016020526040902080549091166105a1576040516340fe50fd60e01b815260040160405180910390fd5b80546040516323b872dd60e01b81526001600160a01b03909116906323b872dd906105d49033903090899060040161130f565b6020604051808303815f875af11580156105f0573d5f5f3e3d5ffd5b505050506040513d601f19601f820116820180604052508101906106149190611333565b5060018101546040516323b872dd60e01b81526001600160a01b03909116906323b872dd9061064b9033903090899060040161130f565b6020604051808303815f875af1158015610667573d5f5f3e3d5ffd5b505050506040513d601f19601f8201168201806040525081019061068b9190611333565b508054604051630852cd8d60e31b8152600481018690526001600160a01b03909116906342966c68906024015f604051808303815f87803b1580156106ce575f5ffd5b505af11580156106e0573d5f5f3e3d5ffd5b505050506001810154604051630852cd8d60e31b8152600481018690526001600160a01b03909116906342966c68906024015f604051808303815f87803b158015610729575f5ffd5b505af115801561073b573d5f5f3e3d5ffd5b505060405163a9059cbb60e01b8152336004820152602481018790526001600160a01b038816925063a9059cbb91506044016020604051808303815f875af1158015610789573d5f5f3e3d5ffd5b505050506040513d601f19601f820116820180604052508101906107ad9190611333565b5080546001820154604080518781526001600160a01b03938416602082015291831690820152849187169033907f9a853bfbdd6034e0e7553bb8ec7789b2603dcccb5759cf390a7a601c0b6da003906060015b60405180910390a45050505050565b5f8181526020819052604090206001600282015460ff1660048111156108375761083761123c565b146108555760405163239dd4ad60e11b815260040160405180910390fd5b80545f9063ffffffff16421061086d575060046108f5565b81546040516301f46b2960e11b8152600481018590525f9164010000000090046001600160a01b0316906303e8d652906024016020604051808303815f875af11580156108bc573d5f5f3e3d5ffd5b505050506040513d601f19601f820116820180604052508101906108e09190611333565b9050806108ee5760036108f1565b60025b9150505b60028201805482919060ff191660018360048111156109165761091661123c565b0217905550827ff34984473148051bc1bdf1be6ecc462d7b228d591058a8a27977b84770b738b98260405161094b9190611352565b60405180910390a2505050565b5f8181526020819052604090206001600282015460ff1660048111156109805761098061123c565b1461099e5760405163239dd4ad60e11b815260040160405180910390fd5b6040516323b872dd60e01b81526001600160a01b038516906323b872dd906109ce9033903090889060040161130f565b6020604051808303815f875af11580156109ea573d5f5f3e3d5ffd5b505050506040513d601f19601f82011682018060405250810190610a0e9190611333565b506001600160a01b038085165f90815260038301602052604090208054909116610a4b576040516340fe50fd60e01b815260040160405180910390fd5b80546040516340c10f1960e01b8152336004820152602481018690526001600160a01b03909116906340c10f19906044015f604051808303815f87803b158015610a93575f5ffd5b505af1158015610aa5573d5f5f3e3d5ffd5b5050505060018101546040516340c10f1960e01b8152336004820152602481018690526001600160a01b03909116906340c10f19906044015f604051808303815f87803b158015610af4575f5ffd5b505af1158015610b06573d5f5f3e3d5ffd5b505082546001840154604080518981526001600160a01b03938416602082015291831690820152869350908816915033907f8fb8a329bc68853568e0dd27c6aee2e361a1f07892cf65ab49cc2f30cd21c3c590606001610800565b5f818152602081905260408120819081600282015460ff166004811115610b8a57610b8a61123c565b03610ba85760405163239dd4ad60e11b815260040160405180910390fd5b6001600160a01b038581165f9081526003830160205260409020541615610be257604051633bdf203f60e01b815260040160405180910390fd5b60405161083f60921b905f90610bfe9087908990602001611366565b6040516020818303038152906040528051906020012090505f8688604051602001610c2a9291906113a1565b60408051601f19818403018152908290528051602090910120636813044560e01b825291506001600160a01b03841690636813044590610c7690608360961b90309087906004016113d7565b6020604051808303815f875af1158015610c92573d5f5f3e3d5ffd5b505050506040513d601f19601f82011682018060405250810190610cb6919061145a565b604051636813044560e01b81529096506001600160a01b03841690636813044590610ced90608360961b9030908690600401611475565b6020604051808303815f875af1158015610d09573d5f5f3e3d5ffd5b505050506040513d601f19601f82011682018060405250810190610d2d919061145a565b94506040518060400160405280876001600160a01b03168152602001866001600160a01b0316815250846003015f8a6001600160a01b03166001600160a01b031681526020019081526020015f205f820151815f015f6101000a8154816001600160a01b0302191690836001600160a01b031602179055506020820151816001015f6101000a8154816001600160a01b0302191690836001600160a01b031602179055509050506040518060600160405280888152602001896001600160a01b031681526020016001151581525060015f886001600160a01b03166001600160a01b031681526020019081526020015f205f820151815f01556020820151816001015f6101000a8154816001600160a01b0302191690836001600160a01b0316021790555060408201518160010160146101000a81548160ff0219169083151502179055509050506040518060600160405280888152602001896001600160a01b031681526020015f151581525060015f876001600160a01b03166001600160a01b031681526020019081526020015f205f820151815f01556020820151816001015f6101000a8154816001600160a01b0302191690836001600160a01b0316021790555060408201518160010160146101000a81548160ff021916908315150217905550905050856001600160a01b0316632f2ff15d7f114e74f6ea3bd819998f78687bfcb11b140da08e9b7d222fa9c1f1ba1f2aa122306040518363ffffffff1660e01b8152600401610f759291909182526001600160a01b0316602082015260400190565b5f604051808303815f87803b158015610f8c575f5ffd5b505af1158015610f9e573d5f5f3e3d5ffd5b5050604051632f2ff15d60e01b81527f114e74f6ea3bd819998f78687bfcb11b140da08e9b7d222fa9c1f1ba1f2aa12260048201523060248201526001600160a01b0388169250632f2ff15d91506044015f604051808303815f87803b158015611006575f5ffd5b505af1158015611018573d5f5f3e3d5ffd5b5050604080516001600160a01b038a8116825289811660208301528c1693508a92507f9e431caef5753e3e939653fc056c910725980029b3653db5a36bebca71d6bc2c910160405180910390a3505050509250929050565b604080516020810185905263ffffffff8416918101919091526001600160a01b03821660608201525f9060800160408051601f19818403018152919052805160209091012090505f5f8281526020819052604090206002015460ff1660048111156110dd576110dd61123c565b146110fb576040516337a5bd9b60e11b815260040160405180910390fd5b5f81815260208190526040902080546001600160a01b038416640100000000026001600160c01b031990911663ffffffff861617178155600180820186905560028201805460ff19168280021790555060405163ffffffff851681526001600160a01b03841690869084907f094eba69d7ca9dfafa34c896067fc8e19395a610e47deb8b25b21b87bec32a3490602001610800565b6001600160a01b03811681146111a4575f5ffd5b50565b5f5f604083850312156111b8575f5ffd5b82356111c381611190565b946020939093013593505050565b5f5f5f606084860312156111e3575f5ffd5b83356111ee81611190565b95602085013595506040909401359392505050565b5f60208284031215611213575f5ffd5b5035919050565b5f6020828403121561122a575f5ffd5b813561123581611190565b9392505050565b634e487b7160e01b5f52602160045260245ffd5b6005811061126c57634e487b7160e01b5f52602160045260245ffd5b9052565b63ffffffff851681526001600160a01b038416602082015260408101839052608081016112a06060830184611250565b95945050505050565b5f5f5f606084860312156112bb575f5ffd5b83359250602084013563ffffffff811681146112d5575f5ffd5b915060408401356112e581611190565b809150509250925092565b5f8261130a57634e487b7160e01b5f52601260045260245ffd5b500490565b6001600160a01b039384168152919092166020820152604081019190915260600190565b5f60208284031215611343575f5ffd5b81518015158114611235575f5ffd5b602081016113608284611250565b92915050565b8281526001600160a01b03821660208201526060604082018190526003908201526259455360e81b60808201525f60a082015b949350505050565b8281526001600160a01b0382166020820152606060408201819052600290820152614e4f60f01b60808201525f60a08201611399565b60c08152600360c08201526259657360e81b60e082015261010060208201525f6114156101008301600381526259455360e81b602082015260400190565b82810360408401526114378160038152621554d160ea1b602082015260400190565b6001600160a01b0396871660608501529490951660808301525060a00152919050565b5f6020828403121561146a575f5ffd5b815161123581611190565b60c08152600260c0820152614e6f60f01b60e082015261010060208201525f611415610100830160028152614e4f60f01b60208201526040019056fea264697066735822122059caea556352b59f534787b58c5562b47d5c0a73fdad0d52568cbdd73802d36164736f6c634300081e0033",
        "nonce": "0x2",
        "chainId": "0x539",
        "feeToken": null,
        "calls": [],
        "keyType": null,
        "keyData": null
      },
      "additionalContracts": [],
      "isFixedGasLimit": false
    },
    {
      "hash": "0x096204f4e04b1ff2a56fe85774c11e02e6b73ae8ac1eaf752375a490b8bc0e93",
      "transactionType": "CALL",
      "contractName": "MultiVerse",
      "contractAddress": "0x9fe46736679d2d9a65f0992f2272de9f3c7fa6e0",
      "function": "open(bytes32,uint32,address)",
      "arguments": [
        "0xaa57e4f266ebec6130df856cb44c5184b91d1ace175f0dae63b2faedb458ce82",
        "1775482175",
        "0xe7f1725E7734CE288F8367e1Bb143E90bb3F0512"
      ],
      "transaction": {
        "from": "0xf39fd6e51aad88f6f4ce6ab8827279cfffb92266",
        "to": "0x9fe46736679d2d9a65f0992f2272de9f3c7fa6e0",
        "value": "0x0",
        "input": "0xc2a33c1daa57e4f266ebec6130df856cb44c5184b91d1ace175f0dae63b2faedb458ce820000000000000000000000000000000000000000000000000000000069d3b53f000000000000000000000000e7f1725e7734ce288f8367e1bb143e90bb3f0512",
        "nonce": "0x3",
        "chainId": "0x539",
        "feeToken": null,
        "calls": [],
        "keyType": null,
        "keyData": null
      },
      "additionalContracts": [],
      "isFixedGasLimit": false
    },
    {
      "hash": "0x15ff69fe19581da18923ffa89791cf039c0de97399be82bc055356c046a50a2b",
      "transactionType": "CALL",
      "contractName": "MultiVerse",
      "contractAddress": "0x9fe46736679d2d9a65f0992f2272de9f3c7fa6e0",
      "function": "open(bytes32,uint32,address)",
      "arguments": [
        "0x675dc91406b92b5418d9a5b51fa99920eaaec6a8653d1c3a8534d2f2ca77cf50",
        "1783258175",
        "0xe7f1725E7734CE288F8367e1Bb143E90bb3F0512"
      ],
      "transaction": {
        "from": "0xf39fd6e51aad88f6f4ce6ab8827279cfffb92266",
        "to": "0x9fe46736679d2d9a65f0992f2272de9f3c7fa6e0",
        "value": "0x0",
        "input": "0xc2a33c1d675dc91406b92b5418d9a5b51fa99920eaaec6a8653d1c3a8534d2f2ca77cf50000000000000000000000000000000000000000000000000000000006a4a5c3f000000000000000000000000e7f1725e7734ce288f8367e1bb143e90bb3f0512",
        "nonce": "0x4",
        "chainId": "0x539",
        "feeToken": null,
        "calls": [],
        "keyType": null,
        "keyData": null
      },
      "additionalContracts": [],
      "isFixedGasLimit": false
    },
    {
      "hash": "0x01ee9ee3c184a5c92ba6847a15318258ccd377e00943467193250db4b6e6974e",
      "transactionType": "CALL",
      "contractName": "MultiVerse",
      "contractAddress": "0x9fe46736679d2d9a65f0992f2272de9f3c7fa6e0",
      "function": "open(bytes32,uint32,address)",
      "arguments": [
        "0xea5d66fa0d42c61c6be8e1aaa116d50b697f1a6f8812bd170721fc3d6d7d216d",
        "1772890175",
        "0xe7f1725E7734CE288F8367e1Bb143E90bb3F0512"
      ],
      "transaction": {
        "from": "0xf39fd6e51aad88f6f4ce6ab8827279cfffb92266",
        "to": "0x9fe46736679d2d9a65f0992f2272de9f3c7fa6e0",
        "value": "0x0",
        "input": "0xc2a33c1dea5d66fa0d42c61c6be8e1aaa116d50b697f1a6f8812bd170721fc3d6d7d216d0000000000000000000000000000000000000000000000000000000069ac283f000000000000000000000000e7f1725e7734ce288f8367e1bb143e90bb3f0512",
        "nonce": "0x5",
        "chainId": "0x539",
        "feeToken": null,
        "calls": [],
        "keyType": null,
        "keyData": null
      },
      "additionalContracts": [],
      "isFixedGasLimit": false
    },
    {
      "hash": "0xf57f7b290d73dae6763c6f468e4310db189b99baac8616f527c4be2db1fd33b1",
      "transactionType": "CALL",
      "contractName": "MultiVerse",
      "contractAddress": "0x9fe46736679d2d9a65f0992f2272de9f3c7fa6e0",
      "function": "open(bytes32,uint32,address)",
      "arguments": [
        "0x482ebd85504df34b950ff4c81390d9d4ebd9b615e097258be3716b109d57f2ef",
        "1799242175",
        "0xe7f1725E7734CE288F8367e1Bb143E90bb3F0512"
      ],
      "transaction": {
        "from": "0xf39fd6e51aad88f6f4ce6ab8827279cfffb92266",
        "to": "0x9fe46736679d2d9a65f0992f2272de9f3c7fa6e0",
        "value": "0x0",
        "input": "0xc2a33c1d482ebd85504df34b950ff4c81390d9d4ebd9b615e097258be3716b109d57f2ef000000000000000000000000000000000000000000000000000000006b3e41bf000000000000000000000000e7f1725e7734ce288f8367e1bb143e90bb3f0512",
        "nonce": "0x6",
        "chainId": "0x539",
        "feeToken": null,
        "calls": [],
        "keyType": null,
        "keyData": null
      },
      "additionalContracts": [],
      "isFixedGasLimit": false
    },
    {
      "hash": null,
      "transactionType": "CALL",
      "contractName": "MultiVerse",
      "contractAddress": "0x9fe46736679d2d9a65f0992f2272de9f3c7fa6e0",
      "function": "create(address,bytes32)",
      "arguments": [
        "0x20C0000000000000000000000000000000000000",
        "0x155c8765d9f081fe8910c2267fbd9dd684cc168d702562e961c826995522e96f"
      ],
      "transaction": {
        "from": "0xf39fd6e51aad88f6f4ce6ab8827279cfffb92266",
        "to": "0x9fe46736679d2d9a65f0992f2272de9f3c7fa6e0",
        "value": "0x0",
        "input": "0xa3def92300000000000000000000000020c0000000000000000000000000000000000000155c8765d9f081fe8910c2267fbd9dd684cc168d702562e961c826995522e96f",
        "nonce": "0x7",
        "chainId": "0x539",
        "feeToken": null,
        "calls": [],
        "keyType": null,
        "keyData": null
      },
      "additionalContracts": [],
      "isFixedGasLimit": false
    },
    {
      "hash": null,
      "transactionType": "CALL",
      "contractName": "MultiVerse",
      "contractAddress": "0x9fe46736679d2d9a65f0992f2272de9f3c7fa6e0",
      "function": "create(address,bytes32)",
      "arguments": [
        "0x20C0000000000000000000000000000000000000",
        "0xd7f02dea60f8445f094557aa3dbdfe1c83f12f085e10c2722efa2e21a79afbbd"
      ],
      "transaction": {
        "from": "0xf39fd6e51aad88f6f4ce6ab8827279cfffb92266",
        "to": "0x9fe46736679d2d9a65f0992f2272de9f3c7fa6e0",
        "value": "0x0",
        "input": "0xa3def92300000000000000000000000020c0000000000000000000000000000000000000d7f02dea60f8445f094557aa3dbdfe1c83f12f085e10c2722efa2e21a79afbbd",
        "nonce": "0x8",
        "chainId": "0x539",
        "feeToken": null,
        "calls": [],
        "keyType": null,
        "keyData": null
      },
      "additionalContracts": [],
      "isFixedGasLimit": false
    },
    {
      "hash": null,
      "transactionType": "CALL",
      "contractName": "MultiVerse",
      "contractAddress": "0x9fe46736679d2d9a65f0992f2272de9f3c7fa6e0",
      "function": "create(address,bytes32)",
      "arguments": [
        "0x20C0000000000000000000000000000000000000",
        "0xe284b2172e682436e2bee844e0df1195b3375ae41c6f84c592ff1704dfbee1a7"
      ],
      "transaction": {
        "from": "0xf39fd6e51aad88f6f4ce6ab8827279cfffb92266",
        "to": "0x9fe46736679d2d9a65f0992f2272de9f3c7fa6e0",
        "value": "0x0",
        "input": "0xa3def92300000000000000000000000020c0000000000000000000000000000000000000e284b2172e682436e2bee844e0df1195b3375ae41c6f84c592ff1704dfbee1a7",
        "nonce": "0x9",
        "chainId": "0x539",
        "feeToken": null,
        "calls": [],
        "keyType": null,
        "keyData": null
      },
      "additionalContracts": [],
      "isFixedGasLimit": false
    },
    {
      "hash": null,
      "transactionType": "CALL",
      "contractName": "MultiVerse",
      "contractAddress": "0x9fe46736679d2d9a65f0992f2272de9f3c7fa6e0",
      "function": "create(address,bytes32)",
      "arguments": [
        "0x20C0000000000000000000000000000000000000",
        "0x67a8eb366baa287e604365f82efc8247706c195f6d5c2236ea4439c3b55cfa0d"
      ],
      "transaction": {
        "from": "0xf39fd6e51aad88f6f4ce6ab8827279cfffb92266",
        "to": "0x9fe46736679d2d9a65f0992f2272de9f3c7fa6e0",
        "value": "0x0",
        "input": "0xa3def92300000000000000000000000020c000000000000000000000000000000000000067a8eb366baa287e604365f82efc8247706c195f6d5c2236ea4439c3b55cfa0d",
        "nonce": "0xa",
        "chainId": "0x539",
        "feeToken": null,
        "calls": [],
        "keyType": null,
        "keyData": null
      },
      "additionalContracts": [],
      "isFixedGasLimit": false
    }
  ],
  "receipts": [
    {
      "type": "0x2",
      "status": "0x1",
      "cumulativeGasUsed": "0x51f91",
      "logs": [
        {
          "address": "0xe7f1725e7734ce288f8367e1bb143e90bb3f0512",
          "topics": [
            "0x8be0079c531659141344cd1fd0a4f28419497f9722a3daafe3b4186f6b6457e0",
            "0x0000000000000000000000000000000000000000000000000000000000000000",
            "0x000000000000000000000000f39fd6e51aad88f6f4ce6ab8827279cfffb92266"
          ],
          "data": "0x",
          "blockHash": "0x1f930826b28e56cf75f03214f5538a06eff0c72fe21f1cf6a1dbcf3d985db5be",
          "blockNumber": "0x102",
          "blockTimestamp": "0x695d0e46",
          "transactionHash": "0xf4730d253fcd06c983afe5fba1d9f76b12073fda2e5df18f96ce8ec62253ed4d",
          "transactionIndex": "0x0",
          "logIndex": "0x0",
          "removed": false
        },
        {
          "address": "0x20c0000000000000000000000000000000000000",
          "topics": [
            "0xddf252ad1be2c89b69c2b068fc378daa952ba7f163c4a11628f55a4df523b3ef",
            "0x000000000000000000000000f39fd6e51aad88f6f4ce6ab8827279cfffb92266",
            "0x000000000000000000000000feec000000000000000000000000000000000000"
          ],
          "data": "0x0000000000000000000000000000000000000000000000000000000000000d1e",
          "blockHash": "0x1f930826b28e56cf75f03214f5538a06eff0c72fe21f1cf6a1dbcf3d985db5be",
          "blockNumber": "0x102",
          "blockTimestamp": "0x695d0e46",
          "transactionHash": "0xf4730d253fcd06c983afe5fba1d9f76b12073fda2e5df18f96ce8ec62253ed4d",
          "transactionIndex": "0x0",
          "logIndex": "0x1",
          "removed": false
        }
      ],
      "logsBloom": "0x00000000000000000000000000000000000000000000000000800000000000000000000000000000000000000100000010000000000000000000000000000000000004000000000000000008000000000001000000000000000000000400000000000000020000000000000100000800000000000000000000000010000000400000000000000000000000000020000000000000800000000000000000000000000020000000000000000000000000000000000000000000000000000000000000000002000000200000000000001000000000002000000000000000000020000000000000000000000000000000000000000000000000800000000000000000",
      "transactionHash": "0xf4730d253fcd06c983afe5fba1d9f76b12073fda2e5df18f96ce8ec62253ed4d",
      "transactionIndex": "0x0",
      "blockHash": "0x1f930826b28e56cf75f03214f5538a06eff0c72fe21f1cf6a1dbcf3d985db5be",
      "blockNumber": "0x102",
      "gasUsed": "0x51f91",
      "effectiveGasPrice": "0x2540be401",
      "from": "0xf39fd6e51aad88f6f4ce6ab8827279cfffb92266",
      "to": null,
      "contractAddress": "0xe7f1725e7734ce288f8367e1bb143e90bb3f0512",
      "feeToken": "0x20c0000000000000000000000000000000000000",
      "feePayer": "0xf39fd6e51aad88f6f4ce6ab8827279cfffb92266"
    },
    {
      "type": "0x2",
      "status": "0x1",
      "cumulativeGasUsed": "0x12770e",
      "logs": [
        {
          "address": "0x20c0000000000000000000000000000000000000",
          "topics": [
            "0xddf252ad1be2c89b69c2b068fc378daa952ba7f163c4a11628f55a4df523b3ef",
            "0x000000000000000000000000f39fd6e51aad88f6f4ce6ab8827279cfffb92266",
            "0x000000000000000000000000feec000000000000000000000000000000000000"
          ],
          "data": "0x0000000000000000000000000000000000000000000000000000000000002f46",
          "blockHash": "0x2b766298d985d0da4323591ef73a9fe70fdf52797553aa01babdb1510ad58ab5",
          "blockNumber": "0x105",
          "blockTimestamp": "0x695d0e46",
          "transactionHash": "0x31ae2a957b019535da3caabf68ff47788e63c4306bc9820b8f3d2639389fb5b0",
          "transactionIndex": "0x0",
          "logIndex": "0x0",
          "removed": false
        }
      ],
      "logsBloom": "0x00000000000000000000000000000000000000000000000000000000000000000000000000000000000000000100000000000000000000000000000000000000000004000000000000000008000000000000000000000000000000000400000000000000000000000000000100000000000000000000000000000010000000000000000000000000000000000020000000000000800000000000000000000000000020000000000000000000000000000000000000000000000000000000000000000002000000200000000000000000000000002000000000000000000000000000000000000000000000000000000000000000000000000000000000000000",
      "transactionHash": "0x31ae2a957b019535da3caabf68ff47788e63c4306bc9820b8f3d2639389fb5b0",
      "transactionIndex": "0x0",
      "blockHash": "0x2b766298d985d0da4323591ef73a9fe70fdf52797553aa01babdb1510ad58ab5",
      "blockNumber": "0x105",
      "gasUsed": "0x12770e",
      "effectiveGasPrice": "0x2540be401",
      "from": "0xf39fd6e51aad88f6f4ce6ab8827279cfffb92266",
      "to": null,
      "contractAddress": "0x9fe46736679d2d9a65f0992f2272de9f3c7fa6e0",
      "feeToken": "0x20c0000000000000000000000000000000000000",
      "feePayer": "0xf39fd6e51aad88f6f4ce6ab8827279cfffb92266"
    },
    {
      "type": "0x2",
      "status": "0x1",
      "cumulativeGasUsed": "0x1665e",
      "logs": [
        {
          "address": "0x9fe46736679d2d9a65f0992f2272de9f3c7fa6e0",
          "topics": [
            "0x094eba69d7ca9dfafa34c896067fc8e19395a610e47deb8b25b21b87bec32a34",
            "0x155c8765d9f081fe8910c2267fbd9dd684cc168d702562e961c826995522e96f",
            "0xaa57e4f266ebec6130df856cb44c5184b91d1ace175f0dae63b2faedb458ce82",
            "0x000000000000000000000000e7f1725e7734ce288f8367e1bb143e90bb3f0512"
          ],
          "data": "0x0000000000000000000000000000000000000000000000000000000069d3b53f",
          "blockHash": "0x7f3320e162f4d1bf1ba9a3ec9589319d0ad78ae48dda3a7ec1a9d3f27092c17d",
          "blockNumber": "0x108",
          "blockTimestamp": "0x695d0e46",
          "transactionHash": "0x096204f4e04b1ff2a56fe85774c11e02e6b73ae8ac1eaf752375a490b8bc0e93",
          "transactionIndex": "0x0",
          "logIndex": "0x0",
          "removed": false
        },
        {
          "address": "0x20c0000000000000000000000000000000000000",
          "topics": [
            "0xddf252ad1be2c89b69c2b068fc378daa952ba7f163c4a11628f55a4df523b3ef",
            "0x000000000000000000000000f39fd6e51aad88f6f4ce6ab8827279cfffb92266",
            "0x000000000000000000000000feec000000000000000000000000000000000000"
          ],
          "data": "0x0000000000000000000000000000000000000000000000000000000000000396",
          "blockHash": "0x7f3320e162f4d1bf1ba9a3ec9589319d0ad78ae48dda3a7ec1a9d3f27092c17d",
          "blockNumber": "0x108",
          "blockTimestamp": "0x695d0e46",
          "transactionHash": "0x096204f4e04b1ff2a56fe85774c11e02e6b73ae8ac1eaf752375a490b8bc0e93",
          "transactionIndex": "0x0",
          "logIndex": "0x1",
          "removed": false
        }
      ],
      "logsBloom": "0x00000000000000000400000000000000000000008000000000000000000000000800000000000000000000000100000000000000000040200000000000000000000004000000000000000008000000000000000000000000000000000400000000000000000000000000000100000000000000000000000000000014000000000000000000000000010000010020000000000000800000000000000000000000000020000000000000000002000000000000000000000000000000000000000000000002000040281000000000000000000000002000000000000000000000004000000000000000000000000000000000000000000000420000000000000000",
      "transactionHash": "0x096204f4e04b1ff2a56fe85774c11e02e6b73ae8ac1eaf752375a490b8bc0e93",
      "transactionIndex": "0x0",
      "blockHash": "0x7f3320e162f4d1bf1ba9a3ec9589319d0ad78ae48dda3a7ec1a9d3f27092c17d",
      "blockNumber": "0x108",
      "gasUsed": "0x1665e",
      "effectiveGasPrice": "0x2540be401",
      "from": "0xf39fd6e51aad88f6f4ce6ab8827279cfffb92266",
      "to": "0x9fe46736679d2d9a65f0992f2272de9f3c7fa6e0",
      "contractAddress": null,
      "feeToken": "0x20c0000000000000000000000000000000000000",
      "feePayer": "0xf39fd6e51aad88f6f4ce6ab8827279cfffb92266"
    },
    {
      "type": "0x2",
      "status": "0x1",
      "cumulativeGasUsed": "0x1665e",
      "logs": [
        {
          "address": "0x9fe46736679d2d9a65f0992f2272de9f3c7fa6e0",
          "topics": [
            "0x094eba69d7ca9dfafa34c896067fc8e19395a610e47deb8b25b21b87bec32a34",
            "0xd7f02dea60f8445f094557aa3dbdfe1c83f12f085e10c2722efa2e21a79afbbd",
            "0x675dc91406b92b5418d9a5b51fa99920eaaec6a8653d1c3a8534d2f2ca77cf50",
            "0x000000000000000000000000e7f1725e7734ce288f8367e1bb143e90bb3f0512"
          ],
          "data": "0x000000000000000000000000000000000000000000000000000000006a4a5c3f",
          "blockHash": "0x7841501f7b8ab3460454b8a6df9811d24464af3e3573eaa35e32f31a41a788aa",
          "blockNumber": "0x10a",
          "blockTimestamp": "0x695d0e47",
          "transactionHash": "0x15ff69fe19581da18923ffa89791cf039c0de97399be82bc055356c046a50a2b",
          "transactionIndex": "0x0",
          "logIndex": "0x0",
          "removed": false
        },
        {
          "address": "0x20c0000000000000000000000000000000000000",
          "topics": [
            "0xddf252ad1be2c89b69c2b068fc378daa952ba7f163c4a11628f55a4df523b3ef",
            "0x000000000000000000000000f39fd6e51aad88f6f4ce6ab8827279cfffb92266",
            "0x000000000000000000000000feec000000000000000000000000000000000000"
          ],
          "data": "0x0000000000000000000000000000000000000000000000000000000000000396",
          "blockHash": "0x7841501f7b8ab3460454b8a6df9811d24464af3e3573eaa35e32f31a41a788aa",
          "blockNumber": "0x10a",
          "blockTimestamp": "0x695d0e47",
          "transactionHash": "0x15ff69fe19581da18923ffa89791cf039c0de97399be82bc055356c046a50a2b",
          "transactionIndex": "0x0",
          "logIndex": "0x1",
          "removed": false
        }
      ],
      "logsBloom": "0x00000000000000000400000000000000000000000000000000000000000000000800000000000000000000000100000000000000000040200000000000000000000004000000000000000008000000000000000000000000000000000400000000000000000000000000000100000000000000000000000000000014010000000000000000000000010000000020100000000000800000000004000000010000020020000000000000000002000000000000000000000000000000000000008000000002000000200000000000000000000000002000000000000000000000004000000000000000000000000000000000000000000000400000000000000000",
      "transactionHash": "0x15ff69fe19581da18923ffa89791cf039c0de97399be82bc055356c046a50a2b",
      "transactionIndex": "0x0",
      "blockHash": "0x7841501f7b8ab3460454b8a6df9811d24464af3e3573eaa35e32f31a41a788aa",
      "blockNumber": "0x10a",
      "gasUsed": "0x1665e",
      "effectiveGasPrice": "0x2540be401",
      "from": "0xf39fd6e51aad88f6f4ce6ab8827279cfffb92266",
      "to": "0x9fe46736679d2d9a65f0992f2272de9f3c7fa6e0",
      "contractAddress": null,
      "feeToken": "0x20c0000000000000000000000000000000000000",
      "feePayer": "0xf39fd6e51aad88f6f4ce6ab8827279cfffb92266"
    },
    {
      "type": "0x2",
      "status": "0x1",
      "cumulativeGasUsed": "0x1665e",
      "logs": [
        {
          "address": "0x9fe46736679d2d9a65f0992f2272de9f3c7fa6e0",
          "topics": [
            "0x094eba69d7ca9dfafa34c896067fc8e19395a610e47deb8b25b21b87bec32a34",
            "0xe284b2172e682436e2bee844e0df1195b3375ae41c6f84c592ff1704dfbee1a7",
            "0xea5d66fa0d42c61c6be8e1aaa116d50b697f1a6f8812bd170721fc3d6d7d216d",
            "0x000000000000000000000000e7f1725e7734ce288f8367e1bb143e90bb3f0512"
          ],
          "data": "0x0000000000000000000000000000000000000000000000000000000069ac283f",
          "blockHash": "0x0cf77a510d49fbd27c3e6557ed4be10329cca0295c131db4f164e0e1bda4a186",
          "blockNumber": "0x10d",
          "blockTimestamp": "0x695d0e47",
          "transactionHash": "0x01ee9ee3c184a5c92ba6847a15318258ccd377e00943467193250db4b6e6974e",
          "transactionIndex": "0x0",
          "logIndex": "0x0",
          "removed": false
        },
        {
          "address": "0x20c0000000000000000000000000000000000000",
          "topics": [
            "0xddf252ad1be2c89b69c2b068fc378daa952ba7f163c4a11628f55a4df523b3ef",
            "0x000000000000000000000000f39fd6e51aad88f6f4ce6ab8827279cfffb92266",
            "0x000000000000000000000000feec000000000000000000000000000000000000"
          ],
          "data": "0x0000000000000000000000000000000000000000000000000000000000000396",
          "blockHash": "0x0cf77a510d49fbd27c3e6557ed4be10329cca0295c131db4f164e0e1bda4a186",
          "blockNumber": "0x10d",
          "blockTimestamp": "0x695d0e47",
          "transactionHash": "0x01ee9ee3c184a5c92ba6847a15318258ccd377e00943467193250db4b6e6974e",
          "transactionIndex": "0x0",
          "logIndex": "0x1",
          "removed": false
        }
      ],
      "logsBloom": "0x00000000000000000400000000000000000000000000000000000001000000000800000004000000000000000100000000000000000040200000000000000000000004004000000000000008000000000000000000000000000000000400000000000801000000000000000100000000000000000000000000000014000000000000000000000000010000000020000000000000800000000000000000000000000020000000000000000002000000000000000000000000000010000000000000000002000000200000000000000000000000002000000000000000000000004000000000000000000000000000000000000000000000400000000000000000",
      "transactionHash": "0x01ee9ee3c184a5c92ba6847a15318258ccd377e00943467193250db4b6e6974e",
      "transactionIndex": "0x0",
      "blockHash": "0x0cf77a510d49fbd27c3e6557ed4be10329cca0295c131db4f164e0e1bda4a186",
      "blockNumber": "0x10d",
      "gasUsed": "0x1665e",
      "effectiveGasPrice": "0x2540be401",
      "from": "0xf39fd6e51aad88f6f4ce6ab8827279cfffb92266",
      "to": "0x9fe46736679d2d9a65f0992f2272de9f3c7fa6e0",
      "contractAddress": null,
      "feeToken": "0x20c0000000000000000000000000000000000000",
      "feePayer": "0xf39fd6e51aad88f6f4ce6ab8827279cfffb92266"
    },
    {
      "type": "0x2",
      "status": "0x1",
      "cumulativeGasUsed": "0x1665e",
      "logs": [
        {
          "address": "0x9fe46736679d2d9a65f0992f2272de9f3c7fa6e0",
          "topics": [
            "0x094eba69d7ca9dfafa34c896067fc8e19395a610e47deb8b25b21b87bec32a34",
            "0x67a8eb366baa287e604365f82efc8247706c195f6d5c2236ea4439c3b55cfa0d",
            "0x482ebd85504df34b950ff4c81390d9d4ebd9b615e097258be3716b109d57f2ef",
            "0x000000000000000000000000e7f1725e7734ce288f8367e1bb143e90bb3f0512"
          ],
          "data": "0x000000000000000000000000000000000000000000000000000000006b3e41bf",
          "blockHash": "0x068cffa7d7db0f29d6b29e3640427add066a8fb5c8fc34763a9ae93ba03b0111",
          "blockNumber": "0x10f",
          "blockTimestamp": "0x695d0e47",
          "transactionHash": "0xf57f7b290d73dae6763c6f468e4310db189b99baac8616f527c4be2db1fd33b1",
          "transactionIndex": "0x0",
          "logIndex": "0x0",
          "removed": false
        },
        {
          "address": "0x20c0000000000000000000000000000000000000",
          "topics": [
            "0xddf252ad1be2c89b69c2b068fc378daa952ba7f163c4a11628f55a4df523b3ef",
            "0x000000000000000000000000f39fd6e51aad88f6f4ce6ab8827279cfffb92266",
            "0x000000000000000000000000feec000000000000000000000000000000000000"
          ],
          "data": "0x0000000000000000000000000000000000000000000000000000000000000396",
          "blockHash": "0x068cffa7d7db0f29d6b29e3640427add066a8fb5c8fc34763a9ae93ba03b0111",
          "blockNumber": "0x10f",
          "blockTimestamp": "0x695d0e47",
          "transactionHash": "0xf57f7b290d73dae6763c6f468e4310db189b99baac8616f527c4be2db1fd33b1",
          "transactionIndex": "0x0",
          "logIndex": "0x1",
          "removed": false
        }
      ],
      "logsBloom": "0x00002000000000000400008000000000000000000000000000000000000000000800000000000000000000000100000000001000000040200000000000000000000004000000000000000008000000000100000000000000000000000400000000000000000000000000000100000000000000000000000100000014000000000000000000000000010000000020000000000000800000000000000000000000000020000000000000000002000000000000000000000000000000000000000000000002000000200000000000000000000000002000000000000000000000004000000000000000000000000000000000000000000000400000000000000000",
      "transactionHash": "0xf57f7b290d73dae6763c6f468e4310db189b99baac8616f527c4be2db1fd33b1",
      "transactionIndex": "0x0",
      "blockHash": "0x068cffa7d7db0f29d6b29e3640427add066a8fb5c8fc34763a9ae93ba03b0111",
      "blockNumber": "0x10f",
      "gasUsed": "0x1665e",
      "effectiveGasPrice": "0x2540be401",
      "from": "0xf39fd6e51aad88f6f4ce6ab8827279cfffb92266",
      "to": "0x9fe46736679d2d9a65f0992f2272de9f3c7fa6e0",
      "contractAddress": null,
      "feeToken": "0x20c0000000000000000000000000000000000000",
      "feePayer": "0xf39fd6e51aad88f6f4ce6ab8827279cfffb92266"
    }
  ],
  "libraries": [],
  "pending": [],
  "returns": {},
  "timestamp": 1767706212304,
  "chain": 1337,
  "commit": "1635ae4"
}