{
  "transactions": [
    {
      "hash": "0xb1aa705a656ae4e76d16e943f4a617d7ee912b5e366db098849e50bbbd9af62c",
      "transactionType": "CREATE",
      "contractName": "TrustedOracle",
      "contractAddress": "0xdb875c7987584ed9ccec95da132501eceb145b13",
      "function": null,
      "arguments": null,
      "transaction": {
        "from": "0xf6dc8446dfc303999c5d9cb932dd54948253747e",
        "gas": "0x6a909",
        "value": "0x0",
        "input": "0x6080604052348015600e575f5ffd5b50601633601a565b6055565b6001600160a01b0316638b78c6d819819055805f7f8be0079c531659141344cd1fd0a4f28419497f9722a3daafe3b4186f6b6457e08180a350565b6104a8806100625f395ff3fe60806040526004361061009a575f3560e01c80638da5cb5b116100625780638da5cb5b1461010b578063d4b06fb814610136578063f04e283e14610164578063f2fde38b14610177578063f636e0f61461018a578063fee81cf4146101b8575f5ffd5b806303e8d6521461009e57806325692962146100d25780632fdc6cde146100dc57806354d1f13d146100fb578063715018a614610103575b5f5ffd5b3480156100a9575f5ffd5b506100bd6100b83660046103fc565b6101f7565b60405190151581526020015b60405180910390f35b6100da61023a565b005b3480156100e7575f5ffd5b506100da6100f6366004610413565b610287565b6100da6102f6565b6100da61032f565b348015610116575f5ffd5b50638b78c6d819546040516001600160a01b0390911681526020016100c9565b348015610141575f5ffd5b506100bd6101503660046103fc565b5f6020819052908152604090205460ff1681565b6100da610172366004610445565b610342565b6100da610185366004610445565b61037f565b348015610195575f5ffd5b506100bd6101a43660046103fc565b60016020525f908152604090205460ff1681565b3480156101c3575f5ffd5b506101e96101d2366004610445565b63389a75e1600c9081525f91909152602090205490565b6040519081526020016100c9565b5f8181526001602052604081205460ff1661022557604051634aec5ac760e01b815260040160405180910390fd5b505f9081526020819052604090205460ff1690565b5f6202a30067ffffffffffffffff164201905063389a75e1600c52335f52806020600c2055337fdbf36a107da19e49527a7176a1babf963b4b0ff8cde35ee35d6cd8f1f9ac7e1d5f5fa250565b61028f6103a5565b5f82815260208181526040808320805485151560ff19918216811790925560018085529483902080549091169094179093555191825283917f57c39a2480accb4077522f2253a3915afdc67e1ca5883a57957ed61f2f04d023910160405180910390a25050565b63389a75e1600c52335f525f6020600c2055337ffa7b8eab7da67f412cc9575ed43464468f9bfbae89d1675917346ca6d8fe3c925f5fa2565b6103376103a5565b6103405f6103bf565b565b61034a6103a5565b63389a75e1600c52805f526020600c20805442111561037057636f5e88185f526004601cfd5b5f905561037c816103bf565b50565b6103876103a5565b8060601b61039c57637448fbae5f526004601cfd5b61037c816103bf565b638b78c6d819543314610340576382b429005f526004601cfd5b638b78c6d81980546001600160a01b039092169182907f8be0079c531659141344cd1fd0a4f28419497f9722a3daafe3b4186f6b6457e05f80a355565b5f6020828403121561040c575f5ffd5b5035919050565b5f5f60408385031215610424575f5ffd5b823591506020830135801515811461043a575f5ffd5b809150509250929050565b5f60208284031215610455575f5ffd5b81356001600160a01b038116811461046b575f5ffd5b939250505056fea2646970667358221220758a44ba0589aa1e9c5c5158ff502f3cbb50162cde6c15d8d597e83a6706cb0264736f6c634300081e0033",
        "nonce": "0x0",
        "chainId": "0xa5bd",
        "feeToken": null,
        "calls": [],
        "keyType": null,
        "keyData": null
      },
      "additionalContracts": [],
      "isFixedGasLimit": false
    },
    {
      "hash": "0x7d0d5260aae537fe1a02ea533b53b2457989164cbea02e8e87b2f4b86d3bc262",
      "transactionType": "CREATE",
      "contractName": "MultiVerse",
      "contractAddress": "0x06a9f4629b75032f16d5e03b9672d8f11fa93ae3",
      "function": null,
      "arguments": null,
      "transaction": {
        "from": "0xf6dc8446dfc303999c5d9cb932dd54948253747e",
        "gas": "0x1728ef",
        "value": "0x0",
        "input": "0x6080604052348015600e575f5ffd5b506114228061001c5f395ff3fe608060405234801561000f575f5ffd5b506004361061009b575f3560e01c80639ba730a9116100635780639ba730a91461018a578063a3def9231461019d578063c2a33c1d146101d0578063c48db66a146101e3578063e973955014610243575f5ffd5b80631e9a69501461009f57806341055a76146100c55780635c23bdf5146100da5780637183d24a146100ed5780637564912b1461012e575b5f5ffd5b6100b26100ad36600461113f565b610285565b6040519081526020015b60405180910390f35b6100d86100d3366004611169565b61051f565b005b6100d86100e836600461119b565b61080f565b61011e6100fb3660046111b2565b6001600160a01b039081165f908152600160208190526040909120015416151590565b60405190151581526020016100bc565b61017a61013c36600461119b565b5f9081526020819052604090208054600182015460029092015463ffffffff8216936401000000009092046001600160a01b0316929160ff90911690565b6040516100bc9493929190611208565b6100d8610198366004611169565b610958565b6101b06101ab36600461113f565b610b61565b604080516001600160a01b039384168152929091166020830152016100bc565b6100d86101de366004611241565b611008565b61021e6101f13660046111b2565b600160208190525f918252604090912080549101546001600160a01b03811690600160a01b900460ff1683565b604080519384526001600160a01b0390921660208401521515908201526060016100bc565b6101b061025136600461113f565b5f908152602081815260408083206001600160a01b0394851684526003019091529020805460019091015490821692911690565b6001600160a01b038083165f90815260016020819052604082209081015491929091166102c5576040516340fe50fd60e01b815260040160405180910390fd5b80545f90815260208190526040902060028082015460ff16908160048111156102f0576102f06111d4565b14801561030857506001830154600160a01b900460ff165b1561031557849350610393565b6003816004811115610329576103296111d4565b14801561034257506001830154600160a01b900460ff16155b1561034f57849350610393565b6004816004811115610363576103636111d4565b0361037a57610373600286611288565b9350610393565b604051637256f64560e11b815260040160405180910390fd5b6040516323b872dd60e01b81526001600160a01b038716906323b872dd906103c390339030908a906004016112a7565b6020604051808303815f875af11580156103df573d5f5f3e3d5ffd5b505050506040513d601f19601f8201168201806040525081019061040391906112cb565b50604051630852cd8d60e31b8152600481018690526001600160a01b038716906342966c68906024015f604051808303815f87803b158015610443575f5ffd5b505af1158015610455573d5f5f3e3d5ffd5b50505050600183015460405163a9059cbb60e01b8152336004820152602481018690526001600160a01b039091169063a9059cbb906044016020604051808303815f875af11580156104a9573d5f5f3e3d5ffd5b505050506040513d601f19601f820116820180604052508101906104cd91906112cb565b50825460408051878152602081018790526001600160a01b0389169133917fae1d804a86b6ba2a7725d9824d4ccb4e7f9a55e7a1bf4379c26692ce5ad00665910160405180910390a450505092915050565b5f8181526020819052604090206001600282015460ff166004811115610547576105476111d4565b146105655760405163239dd4ad60e11b815260040160405180910390fd5b6001600160a01b038085165f908152600383016020526040902080549091166105a1576040516340fe50fd60e01b815260040160405180910390fd5b80546040516323b872dd60e01b81526001600160a01b03909116906323b872dd906105d4903390309089906004016112a7565b6020604051808303815f875af11580156105f0573d5f5f3e3d5ffd5b505050506040513d601f19601f8201168201806040525081019061061491906112cb565b5060018101546040516323b872dd60e01b81526001600160a01b03909116906323b872dd9061064b903390309089906004016112a7565b6020604051808303815f875af1158015610667573d5f5f3e3d5ffd5b505050506040513d601f19601f8201168201806040525081019061068b91906112cb565b508054604051630852cd8d60e31b8152600481018690526001600160a01b03909116906342966c68906024015f604051808303815f87803b1580156106ce575f5ffd5b505af11580156106e0573d5f5f3e3d5ffd5b505050506001810154604051630852cd8d60e31b8152600481018690526001600160a01b03909116906342966c68906024015f604051808303815f87803b158015610729575f5ffd5b505af115801561073b573d5f5f3e3d5ffd5b505060405163a9059cbb60e01b8152336004820152602481018790526001600160a01b038816925063a9059cbb91506044016020604051808303815f875af1158015610789573d5f5f3e3d5ffd5b505050506040513d601f19601f820116820180604052508101906107ad91906112cb565b5080546001820154604080518781526001600160a01b03938416602082015291831690820152849187169033907f9a853bfbdd6034e0e7553bb8ec7789b2603dcccb5759cf390a7a601c0b6da003906060015b60405180910390a45050505050565b5f8181526020819052604090206001600282015460ff166004811115610837576108376111d4565b146108555760405163239dd4ad60e11b815260040160405180910390fd5b80545f9063ffffffff16421061086d575060046108f5565b81546040516301f46b2960e11b8152600481018590525f9164010000000090046001600160a01b0316906303e8d652906024016020604051808303815f875af11580156108bc573d5f5f3e3d5ffd5b505050506040513d601f19601f820116820180604052508101906108e091906112cb565b9050806108ee5760036108f1565b60025b9150505b60028201805482919060ff19166001836004811115610916576109166111d4565b0217905550827ff34984473148051bc1bdf1be6ecc462d7b228d591058a8a27977b84770b738b98260405161094b91906112ea565b60405180910390a2505050565b5f8181526020819052604090206001600282015460ff166004811115610980576109806111d4565b1461099e5760405163239dd4ad60e11b815260040160405180910390fd5b6040516323b872dd60e01b81526001600160a01b038516906323b872dd906109ce903390309088906004016112a7565b6020604051808303815f875af11580156109ea573d5f5f3e3d5ffd5b505050506040513d601f19601f82011682018060405250810190610a0e91906112cb565b506001600160a01b038085165f90815260038301602052604090208054909116610a4b576040516340fe50fd60e01b815260040160405180910390fd5b80546040516340c10f1960e01b8152336004820152602481018690526001600160a01b03909116906340c10f19906044015f604051808303815f87803b158015610a93575f5ffd5b505af1158015610aa5573d5f5f3e3d5ffd5b5050505060018101546040516340c10f1960e01b8152336004820152602481018690526001600160a01b03909116906340c10f19906044015f604051808303815f87803b158015610af4575f5ffd5b505af1158015610b06573d5f5f3e3d5ffd5b505082546001840154604080518981526001600160a01b03938416602082015291831690820152869350908816915033907f8fb8a329bc68853568e0dd27c6aee2e361a1f07892cf65ab49cc2f30cd21c3c590606001610800565b5f818152602081905260408120819081600282015460ff166004811115610b8a57610b8a6111d4565b03610ba85760405163239dd4ad60e11b815260040160405180910390fd5b6001600160a01b038581165f9081526003830160205260409020541615610be257604051633bdf203f60e01b815260040160405180910390fd5b604051632ce56e6b60e21b815261083f60921b90819063b395b9ac90610c1290608360961b9030906004016112fe565b6020604051808303815f875af1158015610c2e573d5f5f3e3d5ffd5b505050506040513d601f19601f82011682018060405250810190610c529190611378565b604051632ce56e6b60e21b81529094506001600160a01b0382169063b395b9ac90610c8790608360961b903090600401611393565b6020604051808303815f875af1158015610ca3573d5f5f3e3d5ffd5b505050506040513d601f19601f82011682018060405250810190610cc79190611378565b92506040518060400160405280856001600160a01b03168152602001846001600160a01b0316815250826003015f886001600160a01b03166001600160a01b031681526020019081526020015f205f820151815f015f6101000a8154816001600160a01b0302191690836001600160a01b031602179055506020820151816001015f6101000a8154816001600160a01b0302191690836001600160a01b031602179055509050506040518060600160405280868152602001876001600160a01b031681526020016001151581525060015f866001600160a01b03166001600160a01b031681526020019081526020015f205f820151815f01556020820151816001015f6101000a8154816001600160a01b0302191690836001600160a01b0316021790555060408201518160010160146101000a81548160ff0219169083151502179055509050506040518060600160405280868152602001876001600160a01b031681526020015f151581525060015f856001600160a01b03166001600160a01b031681526020019081526020015f205f820151815f01556020820151816001015f6101000a8154816001600160a01b0302191690836001600160a01b0316021790555060408201518160010160146101000a81548160ff021916908315150217905550905050836001600160a01b0316632f2ff15d7f114e74f6ea3bd819998f78687bfcb11b140da08e9b7d222fa9c1f1ba1f2aa122306040518363ffffffff1660e01b8152600401610f0f9291909182526001600160a01b0316602082015260400190565b5f604051808303815f87803b158015610f26575f5ffd5b505af1158015610f38573d5f5f3e3d5ffd5b5050604051632f2ff15d60e01b81527f114e74f6ea3bd819998f78687bfcb11b140da08e9b7d222fa9c1f1ba1f2aa12260048201523060248201526001600160a01b0386169250632f2ff15d91506044015f604051808303815f87803b158015610fa0575f5ffd5b505af1158015610fb2573d5f5f3e3d5ffd5b5050604080516001600160a01b03888116825287811660208301528a1693508892507f9e431caef5753e3e939653fc056c910725980029b3653db5a36bebca71d6bc2c910160405180910390a350509250929050565b604080516020810185905263ffffffff8416918101919091526001600160a01b03821660608201525f9060800160408051601f19818403018152919052805160209091012090505f5f8281526020819052604090206002015460ff166004811115611075576110756111d4565b14611093576040516337a5bd9b60e11b815260040160405180910390fd5b5f81815260208190526040902080546001600160a01b038416640100000000026001600160c01b031990911663ffffffff861617178155600180820186905560028201805460ff19168280021790555060405163ffffffff851681526001600160a01b03841690869084907f094eba69d7ca9dfafa34c896067fc8e19395a610e47deb8b25b21b87bec32a3490602001610800565b6001600160a01b038116811461113c575f5ffd5b50565b5f5f60408385031215611150575f5ffd5b823561115b81611128565b946020939093013593505050565b5f5f5f6060848603121561117b575f5ffd5b833561118681611128565b95602085013595506040909401359392505050565b5f602082840312156111ab575f5ffd5b5035919050565b5f602082840312156111c2575f5ffd5b81356111cd81611128565b9392505050565b634e487b7160e01b5f52602160045260245ffd5b6005811061120457634e487b7160e01b5f52602160045260245ffd5b9052565b63ffffffff851681526001600160a01b0384166020820152604081018390526080810161123860608301846111e8565b95945050505050565b5f5f5f60608486031215611253575f5ffd5b83359250602084013563ffffffff8116811461126d575f5ffd5b9150604084013561127d81611128565b809150509250925092565b5f826112a257634e487b7160e01b5f52601260045260245ffd5b500490565b6001600160a01b039384168152919092166020820152604081019190915260600190565b5f602082840312156112db575f5ffd5b815180151581146111cd575f5ffd5b602081016112f882846111e8565b92915050565b60a08152600360a08201526259657360e81b60c082015260e06020820152600360e08201526259455360e81b61010082015261012060408201525f61135961012083016005815264564552534560d81b602082015260400190565b6001600160a01b03948516606084015292909316608090910152919050565b5f60208284031215611388575f5ffd5b81516111cd81611128565b60a08152600260a0820152614e6f60f01b60c082015260e06020820152600260e0820152614e4f60f01b61010082015261012060408201525f61135961012083016005815264564552534560d81b60208201526040019056fea2646970667358221220f12e9c3d41358bcf6c94eb11b7e95154d8a4379f8aa80d1ba9075124719240ce64736f6c634300081e0033",
        "nonce": "0x1",
        "chainId": "0xa5bd",
        "feeToken": null,
        "calls": [],
        "keyType": null,
        "keyData": null
      },
      "additionalContracts": [],
      "isFixedGasLimit": false
    },
    {
      "hash": "0x25d31a276fb346bb107f1ac47d5a5ba043df2b84cfbb7b64e7f6b7c50abb8d6e",
      "transactionType": "CALL",
      "contractName": "MultiVerse",
      "contractAddress": "0x06a9f4629b75032f16d5e03b9672d8f11fa93ae3",
      "function": "open(bytes32,uint32,address)",
      "arguments": [
        "0xaa57e4f266ebec6130df856cb44c5184b91d1ace175f0dae63b2faedb458ce82",
        "1775336772",
        "0xDB875C7987584ED9Ccec95da132501eCeB145b13"
      ],
      "transaction": {
        "from": "0xf6dc8446dfc303999c5d9cb932dd54948253747e",
        "to": "0x06a9f4629b75032f16d5e03b9672d8f11fa93ae3",
        "gas": "0x1eefd",
        "value": "0x0",
        "input": "0xc2a33c1daa57e4f266ebec6130df856cb44c5184b91d1ace175f0dae63b2faedb458ce820000000000000000000000000000000000000000000000000000000069d17d44000000000000000000000000db875c7987584ed9ccec95da132501eceb145b13",
        "nonce": "0x2",
        "chainId": "0xa5bd",
        "feeToken": null,
        "calls": [],
        "keyType": null,
        "keyData": null
      },
      "additionalContracts": [],
      "isFixedGasLimit": false
    },
    {
      "hash": "0xafc4c858ce3ddd59aa220e01a92177f5c62ec8c7fc7506ce8f17ff144f807720",
      "transactionType": "CALL",
      "contractName": "MultiVerse",
      "contractAddress": "0x06a9f4629b75032f16d5e03b9672d8f11fa93ae3",
      "function": "open(bytes32,uint32,address)",
      "arguments": [
        "0x675dc91406b92b5418d9a5b51fa99920eaaec6a8653d1c3a8534d2f2ca77cf50",
        "1783112772",
        "0xDB875C7987584ED9Ccec95da132501eCeB145b13"
      ],
      "transaction": {
        "from": "0xf6dc8446dfc303999c5d9cb932dd54948253747e",
        "to": "0x06a9f4629b75032f16d5e03b9672d8f11fa93ae3",
        "gas": "0x1eefd",
        "value": "0x0",
        "input": "0xc2a33c1d675dc91406b92b5418d9a5b51fa99920eaaec6a8653d1c3a8534d2f2ca77cf50000000000000000000000000000000000000000000000000000000006a482444000000000000000000000000db875c7987584ed9ccec95da132501eceb145b13",
        "nonce": "0x3",
        "chainId": "0xa5bd",
        "feeToken": null,
        "calls": [],
        "keyType": null,
        "keyData": null
      },
      "additionalContracts": [],
      "isFixedGasLimit": false
    },
    {
      "hash": "0xf589dd991cae82ce904d92389ddb8619aa22e671b1d6f6fe6968c8a47d965866",
      "transactionType": "CALL",
      "contractName": "MultiVerse",
      "contractAddress": "0x06a9f4629b75032f16d5e03b9672d8f11fa93ae3",
      "function": "open(bytes32,uint32,address)",
      "arguments": [
        "0xea5d66fa0d42c61c6be8e1aaa116d50b697f1a6f8812bd170721fc3d6d7d216d",
        "1772744772",
        "0xDB875C7987584ED9Ccec95da132501eCeB145b13"
      ],
      "transaction": {
        "from": "0xf6dc8446dfc303999c5d9cb932dd54948253747e",
        "to": "0x06a9f4629b75032f16d5e03b9672d8f11fa93ae3",
        "gas": "0x1eefd",
        "value": "0x0",
        "input": "0xc2a33c1dea5d66fa0d42c61c6be8e1aaa116d50b697f1a6f8812bd170721fc3d6d7d216d0000000000000000000000000000000000000000000000000000000069a9f044000000000000000000000000db875c7987584ed9ccec95da132501eceb145b13",
        "nonce": "0x4",
        "chainId": "0xa5bd",
        "feeToken": null,
        "calls": [],
        "keyType": null,
        "keyData": null
      },
      "additionalContracts": [],
      "isFixedGasLimit": false
    },
    {
      "hash": "0x4296373fd13545ecec00de1efb8792c78dc15f67097413872e50129d2bfb6f8b",
      "transactionType": "CALL",
      "contractName": "MultiVerse",
      "contractAddress": "0x06a9f4629b75032f16d5e03b9672d8f11fa93ae3",
      "function": "open(bytes32,uint32,address)",
      "arguments": [
        "0x482ebd85504df34b950ff4c81390d9d4ebd9b615e097258be3716b109d57f2ef",
        "1799096772",
        "0xDB875C7987584ED9Ccec95da132501eCeB145b13"
      ],
      "transaction": {
        "from": "0xf6dc8446dfc303999c5d9cb932dd54948253747e",
        "to": "0x06a9f4629b75032f16d5e03b9672d8f11fa93ae3",
        "gas": "0x1eefd",
        "value": "0x0",
        "input": "0xc2a33c1d482ebd85504df34b950ff4c81390d9d4ebd9b615e097258be3716b109d57f2ef000000000000000000000000000000000000000000000000000000006b3c09c4000000000000000000000000db875c7987584ed9ccec95da132501eceb145b13",
        "nonce": "0x5",
        "chainId": "0xa5bd",
        "feeToken": null,
        "calls": [],
        "keyType": null,
        "keyData": null
      },
      "additionalContracts": [],
      "isFixedGasLimit": false
    },
    {
      "hash": "0x69cfc5b70cc5a0b4d748999df868fcdf67b9d0583f3fabd45e7caa6bce520107",
      "transactionType": "CALL",
      "contractName": "MultiVerse",
      "contractAddress": "0x06a9f4629b75032f16d5e03b9672d8f11fa93ae3",
      "function": "create(address,bytes32)",
      "arguments": [
        "0x20C0000000000000000000000000000000000000",
        "0x19d6ef2158afe2b1dbb08cbe7e0404ae16549c8573fd645ffb275feec728c743"
      ],
      "transaction": {
        "from": "0xf6dc8446dfc303999c5d9cb932dd54948253747e",
        "to": "0x06a9f4629b75032f16d5e03b9672d8f11fa93ae3",
        "gas": "0xd347c",
        "value": "0x0",
        "input": "0xa3def92300000000000000000000000020c000000000000000000000000000000000000019d6ef2158afe2b1dbb08cbe7e0404ae16549c8573fd645ffb275feec728c743",
        "nonce": "0x6",
        "chainId": "0xa5bd",
        "feeToken": null,
        "calls": [],
        "keyType": null,
        "keyData": null
      },
      "additionalContracts": [],
      "isFixedGasLimit": false
    },
    {
      "hash": "0x595c4d690a28ed68617c102d5b7b0edaaa05a2b25ae58897db252e4727f1d1e1",
      "transactionType": "CALL",
      "contractName": "MultiVerse",
      "contractAddress": "0x06a9f4629b75032f16d5e03b9672d8f11fa93ae3",
      "function": "create(address,bytes32)",
      "arguments": [
        "0x20C0000000000000000000000000000000000000",
        "0x07b9a25c657a8faa88088eee7530f016c6ebc2fbf94e9307f7563b315c6e6091"
      ],
      "transaction": {
        "from": "0xf6dc8446dfc303999c5d9cb932dd54948253747e",
        "to": "0x06a9f4629b75032f16d5e03b9672d8f11fa93ae3",
        "gas": "0xd347c",
        "value": "0x0",
        "input": "0xa3def92300000000000000000000000020c000000000000000000000000000000000000007b9a25c657a8faa88088eee7530f016c6ebc2fbf94e9307f7563b315c6e6091",
        "nonce": "0x7",
        "chainId": "0xa5bd",
        "feeToken": null,
        "calls": [],
        "keyType": null,
        "keyData": null
      },
      "additionalContracts": [],
      "isFixedGasLimit": false
    },
    {
      "hash": "0x577848ebb431e886941cd52784a698caf8fac8d7580f39f7a5c4a5a562c982f5",
      "transactionType": "CALL",
      "contractName": "MultiVerse",
      "contractAddress": "0x06a9f4629b75032f16d5e03b9672d8f11fa93ae3",
      "function": "create(address,bytes32)",
      "arguments": [
        "0x20C0000000000000000000000000000000000000",
        "0x0d6a44bcf3409c34e06c20994fd4c74d542b7470e9f3aef99973adad43e7e08d"
      ],
      "transaction": {
        "from": "0xf6dc8446dfc303999c5d9cb932dd54948253747e",
        "to": "0x06a9f4629b75032f16d5e03b9672d8f11fa93ae3",
        "gas": "0xd347c",
        "value": "0x0",
        "input": "0xa3def92300000000000000000000000020c00000000000000000000000000000000000000d6a44bcf3409c34e06c20994fd4c74d542b7470e9f3aef99973adad43e7e08d",
        "nonce": "0x8",
        "chainId": "0xa5bd",
        "feeToken": null,
        "calls": [],
        "keyType": null,
        "keyData": null
      },
      "additionalContracts": [],
      "isFixedGasLimit": false
    },
    {
      "hash": "0x1d18833812107b4e48067497b38ef0d252ee3ec4ea19936312f442dd8a064745",
      "transactionType": "CALL",
      "contractName": "MultiVerse",
      "contractAddress": "0x06a9f4629b75032f16d5e03b9672d8f11fa93ae3",
      "function": "create(address,bytes32)",
      "arguments": [
        "0x20C0000000000000000000000000000000000000",
        "0x906372e4f4a4f64769e676f7f9db1f2d8c064c04598c46440e9d2a1c108836a9"
      ],
      "transaction": {
        "from": "0xf6dc8446dfc303999c5d9cb932dd54948253747e",
        "to": "0x06a9f4629b75032f16d5e03b9672d8f11fa93ae3",
        "gas": "0xd347c",
        "value": "0x0",
        "input": "0xa3def92300000000000000000000000020c0000000000000000000000000000000000000906372e4f4a4f64769e676f7f9db1f2d8c064c04598c46440e9d2a1c108836a9",
        "nonce": "0x9",
        "chainId": "0xa5bd",
        "feeToken": null,
        "calls": [],
        "keyType": null,
        "keyData": null
      },
      "additionalContracts": [],
      "isFixedGasLimit": false
    }
  ],
  "receipts": [
    {
      "type": "0x2",
      "status": "0x1",
      "cumulativeGasUsed": "0x3207b0",
      "logs": [
        {
          "address": "0xdb875c7987584ed9ccec95da132501eceb145b13",
          "topics": [
            "0x8be0079c531659141344cd1fd0a4f28419497f9722a3daafe3b4186f6b6457e0",
            "0x0000000000000000000000000000000000000000000000000000000000000000",
            "0x000000000000000000000000f6dc8446dfc303999c5d9cb932dd54948253747e"
          ],
          "data": "0x",
          "blockHash": "0xee6bb58a38775c29f2981c8da697d6e361c1069a6a5e6ee34b4b7e4956ce5a72",
          "blockNumber": "0x85e6d3",
          "blockTimestamp": "0x695ad668",
          "transactionHash": "0xb1aa705a656ae4e76d16e943f4a617d7ee912b5e366db098849e50bbbd9af62c",
          "transactionIndex": "0x25",
          "logIndex": "0x4f",
          "removed": false
        },
        {
          "address": "0x20c0000000000000000000000000000000000000",
          "topics": [
            "0xddf252ad1be2c89b69c2b068fc378daa952ba7f163c4a11628f55a4df523b3ef",
            "0x000000000000000000000000f6dc8446dfc303999c5d9cb932dd54948253747e",
            "0x000000000000000000000000feec000000000000000000000000000000000000"
          ],
          "data": "0x0000000000000000000000000000000000000000000000000000000000000d1e",
          "blockHash": "0xee6bb58a38775c29f2981c8da697d6e361c1069a6a5e6ee34b4b7e4956ce5a72",
          "blockNumber": "0x85e6d3",
          "blockTimestamp": "0x695ad668",
          "transactionHash": "0xb1aa705a656ae4e76d16e943f4a617d7ee912b5e366db098849e50bbbd9af62c",
          "transactionIndex": "0x25",
          "logIndex": "0x50",
          "removed": false
        }
      ],
      "logsBloom": "0x00000000040000000000000000000000008000000080000000800000000000000000000000000000000000000100000000000000000000000000000000000000000004000000000000000008000000000001000000000000000000000400000000000000020004000000000000000800000000000000000000000010000000400000000000000000000000000020000000000000800000000000000000000000000020000000000000000000000000000000000000000000000000000000000000000002000000000000000000000000000000000000000000020000000020000000000000000000000000000000000000000000000000000000001000000000",
      "transactionHash": "0xb1aa705a656ae4e76d16e943f4a617d7ee912b5e366db098849e50bbbd9af62c",
      "transactionIndex": "0x25",
      "blockHash": "0xee6bb58a38775c29f2981c8da697d6e361c1069a6a5e6ee34b4b7e4956ce5a72",
      "blockNumber": "0x85e6d3",
      "gasUsed": "0x51f91",
      "effectiveGasPrice": "0x2540e841e",
      "from": "0xf6dc8446dfc303999c5d9cb932dd54948253747e",
      "to": null,
      "contractAddress": "0xdb875c7987584ed9ccec95da132501eceb145b13",
      "feeToken": "0x20c0000000000000000000000000000000000000",
      "feePayer": "0xf6dc8446dfc303999c5d9cb932dd54948253747e"
    },
    {
      "type": "0x2",
      "status": "0x1",
      "cumulativeGasUsed": "0x43d868",
      "logs": [
        {
          "address": "0x20c0000000000000000000000000000000000000",
          "topics": [
            "0xddf252ad1be2c89b69c2b068fc378daa952ba7f163c4a11628f55a4df523b3ef",
            "0x000000000000000000000000f6dc8446dfc303999c5d9cb932dd54948253747e",
            "0x000000000000000000000000feec000000000000000000000000000000000000"
          ],
          "data": "0x0000000000000000000000000000000000000000000000000000000000002d9c",
          "blockHash": "0xee6bb58a38775c29f2981c8da697d6e361c1069a6a5e6ee34b4b7e4956ce5a72",
          "blockNumber": "0x85e6d3",
          "blockTimestamp": "0x695ad668",
          "transactionHash": "0x7d0d5260aae537fe1a02ea533b53b2457989164cbea02e8e87b2f4b86d3bc262",
          "transactionIndex": "0x26",
          "logIndex": "0x51",
          "removed": false
        }
      ],
      "logsBloom": "0x00000000040000000000000000000000000000000000000000000000000000000000000000000000000000000100000000000000000000000000000000000000000004000000000000000008000000000000000000000000000000000400000000000000000000000000000000000000000000000000000000000010000000000000000000000000000000000020000000000000800000000000000000000000000020000000000000000000000000000000000000000000000000000000000000000002000000000000000000000000000000000000000000020000000000000000000000000000000000000000000000000000000000000000001000000000",
      "transactionHash": "0x7d0d5260aae537fe1a02ea533b53b2457989164cbea02e8e87b2f4b86d3bc262",
      "transactionIndex": "0x26",
      "blockHash": "0xee6bb58a38775c29f2981c8da697d6e361c1069a6a5e6ee34b4b7e4956ce5a72",
      "blockNumber": "0x85e6d3",
      "gasUsed": "0x11d0b8",
      "effectiveGasPrice": "0x2540e841e",
      "from": "0xf6dc8446dfc303999c5d9cb932dd54948253747e",
      "to": null,
      "contractAddress": "0x06a9f4629b75032f16d5e03b9672d8f11fa93ae3",
      "feeToken": "0x20c0000000000000000000000000000000000000",
      "feePayer": "0xf6dc8446dfc303999c5d9cb932dd54948253747e"
    },
    {
      "type": "0x2",
      "status": "0x1",
      "cumulativeGasUsed": "0x5ab50c",
      "logs": [
        {
          "address": "0x06a9f4629b75032f16d5e03b9672d8f11fa93ae3",
          "topics": [
            "0x094eba69d7ca9dfafa34c896067fc8e19395a610e47deb8b25b21b87bec32a34",
            "0x19d6ef2158afe2b1dbb08cbe7e0404ae16549c8573fd645ffb275feec728c743",
            "0xaa57e4f266ebec6130df856cb44c5184b91d1ace175f0dae63b2faedb458ce82",
            "0x000000000000000000000000db875c7987584ed9ccec95da132501eceb145b13"
          ],
          "data": "0x0000000000000000000000000000000000000000000000000000000069d17d44",
          "blockHash": "0xee6bb58a38775c29f2981c8da697d6e361c1069a6a5e6ee34b4b7e4956ce5a72",
          "blockNumber": "0x85e6d3",
          "blockTimestamp": "0x695ad668",
          "transactionHash": "0xf589dd991cae82ce904d92389ddb8619aa22e671b1d6f6fe6968c8a47d965866",
          "transactionIndex": "0x37",
          "logIndex": "0xa4",
          "removed": false
        },
        {
          "address": "0x20c0000000000000000000000000000000000000",
          "topics": [
            "0xddf252ad1be2c89b69c2b068fc378daa952ba7f163c4a11628f55a4df523b3ef",
            "0x000000000000000000000000f6dc8446dfc303999c5d9cb932dd54948253747e",
            "0x000000000000000000000000feec000000000000000000000000000000000000"
          ],
          "data": "0x0000000000000000000000000000000000000000000000000000000000000396",
          "blockHash": "0xee6bb58a38775c29f2981c8da697d6e361c1069a6a5e6ee34b4b7e4956ce5a72",
          "blockNumber": "0x85e6d3",
          "blockTimestamp": "0x695ad668",
          "transactionHash": "0xf589dd991cae82ce904d92389ddb8619aa22e671b1d6f6fe6968c8a47d965866",
          "transactionIndex": "0x37",
          "logIndex": "0xa5",
          "removed": false
        }
      ],
      "logsBloom": "0x00000000040000000000000000000000000400008000000000000000000000000800080000000000000000000100000000000000000000000000000000000000000004000000000000000008000000000001000000000000000000000400800000000000000000000000000000000000000000000000000000000010000000000000000000000000010000000020000000000000800000000000000000080000000020000000000000000000000000000000000000000000000000000000000000000002000000003000000000010000000000000000000000020000000000004000000200800000000000000000000000000000000000020000001000000000",
      "transactionHash": "0xf589dd991cae82ce904d92389ddb8619aa22e671b1d6f6fe6968c8a47d965866",
      "transactionIndex": "0x37",
      "blockHash": "0xee6bb58a38775c29f2981c8da697d6e361c1069a6a5e6ee34b4b7e4956ce5a72",
      "blockNumber": "0x85e6d3",
      "gasUsed": "0x1665e",
      "effectiveGasPrice": "0x2540e841e",
      "from": "0xf6dc8446dfc303999c5d9cb932dd54948253747e",
      "to": "0x06a9f4629b75032f16d5e03b9672d8f11fa93ae3",
      "contractAddress": null,
      "feeToken": "0x20c0000000000000000000000000000000000000",
      "feePayer": "0xf6dc8446dfc303999c5d9cb932dd54948253747e"
    },
    {
      "type": "0x2",
      "status": "0x1",
      "cumulativeGasUsed": "0x5c1b6a",
      "logs": [
        {
          "address": "0x06a9f4629b75032f16d5e03b9672d8f11fa93ae3",
          "topics": [
            "0x094eba69d7ca9dfafa34c896067fc8e19395a610e47deb8b25b21b87bec32a34",
            "0x07b9a25c657a8faa88088eee7530f016c6ebc2fbf94e9307f7563b315c6e6091",
            "0x675dc91406b92b5418d9a5b51fa99920eaaec6a8653d1c3a8534d2f2ca77cf50",
            "0x000000000000000000000000db875c7987584ed9ccec95da132501eceb145b13"
          ],
          "data": "0x000000000000000000000000000000000000000000000000000000006a482444",
          "blockHash": "0xee6bb58a38775c29f2981c8da697d6e361c1069a6a5e6ee34b4b7e4956ce5a72",
          "blockNumber": "0x85e6d3",
          "blockTimestamp": "0x695ad668",
          "transactionHash": "0x4296373fd13545ecec00de1efb8792c78dc15f67097413872e50129d2bfb6f8b",
          "transactionIndex": "0x38",
          "logIndex": "0xa6",
          "removed": false
        },
        {
          "address": "0x20c0000000000000000000000000000000000000",
          "topics": [
            "0xddf252ad1be2c89b69c2b068fc378daa952ba7f163c4a11628f55a4df523b3ef",
            "0x000000000000000000000000f6dc8446dfc303999c5d9cb932dd54948253747e",
            "0x000000000000000000000000feec000000000000000000000000000000000000"
          ],
          "data": "0x0000000000000000000000000000000000000000000000000000000000000396",
          "blockHash": "0xee6bb58a38775c29f2981c8da697d6e361c1069a6a5e6ee34b4b7e4956ce5a72",
          "blockNumber": "0x85e6d3",
          "blockTimestamp": "0x695ad668",
          "transactionHash": "0x4296373fd13545ecec00de1efb8792c78dc15f67097413872e50129d2bfb6f8b",
          "transactionIndex": "0x38",
          "logIndex": "0xa7",
          "removed": false
        }
      ],
      "logsBloom": "0x00000000040000000000000000000000000400000000000000000000000000000800080000000000000000000100000000000000000000000000000000000000000004000000000000000008000000000001000000000000020000000400800000000000000000000000000000000000000000000000000000000010000000000000000000000000010000000020000000000000800000000004000000010000020020000000000000000000000000000000000000000000000000000000000000000002000800000000000000011000000000000000000000020000000000004000000000800000000000000000000000000000000000000000001000000000",
      "transactionHash": "0x4296373fd13545ecec00de1efb8792c78dc15f67097413872e50129d2bfb6f8b",
      "transactionIndex": "0x38",
      "blockHash": "0xee6bb58a38775c29f2981c8da697d6e361c1069a6a5e6ee34b4b7e4956ce5a72",
      "blockNumber": "0x85e6d3",
      "gasUsed": "0x1665e",
      "effectiveGasPrice": "0x2540e841e",
      "from": "0xf6dc8446dfc303999c5d9cb932dd54948253747e",
      "to": "0x06a9f4629b75032f16d5e03b9672d8f11fa93ae3",
      "contractAddress": null,
      "feeToken": "0x20c0000000000000000000000000000000000000",
      "feePayer": "0xf6dc8446dfc303999c5d9cb932dd54948253747e"
    },
    {
      "type": "0x2",
      "status": "0x1",
      "cumulativeGasUsed": "0x5d81c8",
      "logs": [
        {
          "address": "0x06a9f4629b75032f16d5e03b9672d8f11fa93ae3",
          "topics": [
            "0x094eba69d7ca9dfafa34c896067fc8e19395a610e47deb8b25b21b87bec32a34",
            "0x0d6a44bcf3409c34e06c20994fd4c74d542b7470e9f3aef99973adad43e7e08d",
            "0xea5d66fa0d42c61c6be8e1aaa116d50b697f1a6f8812bd170721fc3d6d7d216d",
            "0x000000000000000000000000db875c7987584ed9ccec95da132501eceb145b13"
          ],
          "data": "0x0000000000000000000000000000000000000000000000000000000069a9f044",
          "blockHash": "0xee6bb58a38775c29f2981c8da697d6e361c1069a6a5e6ee34b4b7e4956ce5a72",
          "blockNumber": "0x85e6d3",
          "blockTimestamp": "0x695ad668",
          "transactionHash": "0xafc4c858ce3ddd59aa220e01a92177f5c62ec8c7fc7506ce8f17ff144f807720",
          "transactionIndex": "0x39",
          "logIndex": "0xa8",
          "removed": false
        },
        {
          "address": "0x20c0000000000000000000000000000000000000",
          "topics": [
            "0xddf252ad1be2c89b69c2b068fc378daa952ba7f163c4a11628f55a4df523b3ef",
            "0x000000000000000000000000f6dc8446dfc303999c5d9cb932dd54948253747e",
            "0x000000000000000000000000feec000000000000000000000000000000000000"
          ],
          "data": "0x0000000000000000000000000000000000000000000000000000000000000396",
          "blockHash": "0xee6bb58a38775c29f2981c8da697d6e361c1069a6a5e6ee34b4b7e4956ce5a72",
          "blockNumber": "0x85e6d3",
          "blockTimestamp": "0x695ad668",
          "transactionHash": "0xafc4c858ce3ddd59aa220e01a92177f5c62ec8c7fc7506ce8f17ff144f807720",
          "transactionIndex": "0x39",
          "logIndex": "0xa9",
          "removed": false
        }
      ],
      "logsBloom": "0x00000000040000000000000000000000000400000000000000000000000000000800080000000000000000000100000000000000000000000000000000000000000004004000000000000008000100000001000000000001000000000400800000000801000000000000000000000000000000000000000000000010000000000000000000000000010000000020000000000000800000000000000000000000000020000000000080000000000000000000000000000000000000000000000000000002000000000000000000010000000000000000000000020000000000004000000000800000000000000000000000000000000000000000001000000000",
      "transactionHash": "0xafc4c858ce3ddd59aa220e01a92177f5c62ec8c7fc7506ce8f17ff144f807720",
      "transactionIndex": "0x39",
      "blockHash": "0xee6bb58a38775c29f2981c8da697d6e361c1069a6a5e6ee34b4b7e4956ce5a72",
      "blockNumber": "0x85e6d3",
      "gasUsed": "0x1665e",
      "effectiveGasPrice": "0x2540e841e",
      "from": "0xf6dc8446dfc303999c5d9cb932dd54948253747e",
      "to": "0x06a9f4629b75032f16d5e03b9672d8f11fa93ae3",
      "contractAddress": null,
      "feeToken": "0x20c0000000000000000000000000000000000000",
      "feePayer": "0xf6dc8446dfc303999c5d9cb932dd54948253747e"
    },
    {
      "type": "0x2",
      "status": "0x1",
      "cumulativeGasUsed": "0x5ee826",
      "logs": [
        {
          "address": "0x06a9f4629b75032f16d5e03b9672d8f11fa93ae3",
          "topics": [
            "0x094eba69d7ca9dfafa34c896067fc8e19395a610e47deb8b25b21b87bec32a34",
            "0x906372e4f4a4f64769e676f7f9db1f2d8c064c04598c46440e9d2a1c108836a9",
            "0x482ebd85504df34b950ff4c81390d9d4ebd9b615e097258be3716b109d57f2ef",
            "0x000000000000000000000000db875c7987584ed9ccec95da132501eceb145b13"
          ],
          "data": "0x000000000000000000000000000000000000000000000000000000006b3c09c4",
          "blockHash": "0xee6bb58a38775c29f2981c8da697d6e361c1069a6a5e6ee34b4b7e4956ce5a72",
          "blockNumber": "0x85e6d3",
          "blockTimestamp": "0x695ad668",
          "transactionHash": "0x595c4d690a28ed68617c102d5b7b0edaaa05a2b25ae58897db252e4727f1d1e1",
          "transactionIndex": "0x3a",
          "logIndex": "0xaa",
          "removed": false
        },
        {
          "address": "0x20c0000000000000000000000000000000000000",
          "topics": [
            "0xddf252ad1be2c89b69c2b068fc378daa952ba7f163c4a11628f55a4df523b3ef",
            "0x000000000000000000000000f6dc8446dfc303999c5d9cb932dd54948253747e",
            "0x000000000000000000000000feec000000000000000000000000000000000000"
          ],
          "data": "0x0000000000000000000000000000000000000000000000000000000000000396",
          "blockHash": "0xee6bb58a38775c29f2981c8da697d6e361c1069a6a5e6ee34b4b7e4956ce5a72",
          "blockNumber": "0x85e6d3",
          "blockTimestamp": "0x695ad668",
          "transactionHash": "0x595c4d690a28ed68617c102d5b7b0edaaa05a2b25ae58897db252e4727f1d1e1",
          "transactionIndex": "0x3a",
          "logIndex": "0xab",
          "removed": false
        }
      ],
      "logsBloom": "0x00000000040000000000008000000000000400000000000000000000000000000800080000000000001002000100000000000000000000000000000000000000000004000000000000000008000000000001000000000000000000000400800000000000000000000000000000000000000000000000000100000010000000000000000000000000010000000020000000000000800000000000000000000000000020000000000000000000000000000000000000000000000000000000000000000002000000000000000000010000000000000000000000020000000000004000000000800000000000000000000000000000000000000000001000000000",
      "transactionHash": "0x595c4d690a28ed68617c102d5b7b0edaaa05a2b25ae58897db252e4727f1d1e1",
      "transactionIndex": "0x3a",
      "blockHash": "0xee6bb58a38775c29f2981c8da697d6e361c1069a6a5e6ee34b4b7e4956ce5a72",
      "blockNumber": "0x85e6d3",
      "gasUsed": "0x1665e",
      "effectiveGasPrice": "0x2540e841e",
      "from": "0xf6dc8446dfc303999c5d9cb932dd54948253747e",
      "to": "0x06a9f4629b75032f16d5e03b9672d8f11fa93ae3",
      "contractAddress": null,
      "feeToken": "0x20c0000000000000000000000000000000000000",
      "feePayer": "0xf6dc8446dfc303999c5d9cb932dd54948253747e"
    },
    {
      "type": "0x2",
      "status": "0x1",
      "cumulativeGasUsed": "0x67ef98",
      "logs": [
        {
          "address": "0x20fc000000000000000000000000000000000000",
          "topics": [
            "0xaa63cb9ce3fadcd8a4edeec3460c4b3930e838803f6220fa00cb93dacdd63e01",
            "0x00000000000000000000000020c00000000000000000000000000000001a55c1",
            "0x00000000000000000000000000000000000000000000000000000000001a55c1"
          ],
          "data": "0x00000000000000000000000000000000000000000000000000000000000000a000000000000000000000000000000000000000000000000000000000000000e0000000000000000000000000000000000000000000000000000000000000012000000000000000000000000020c000000000000000000000000000000000000000000000000000000000000006a9f4629b75032f16d5e03b9672d8f11fa93ae3000000000000000000000000000000000000000000000000000000000000000359657300000000000000000000000000000000000000000000000000000000000000000000000000000000000000000000000000000000000000000000000003594553000000000000000000000000000000000000000000000000000000000000000000000000000000000000000000000000000000000000000000000000055645525345000000000000000000000000000000000000000000000000000000",
          "blockHash": "0xee6bb58a38775c29f2981c8da697d6e361c1069a6a5e6ee34b4b7e4956ce5a72",
          "blockNumber": "0x85e6d3",
          "blockTimestamp": "0x695ad668",
          "transactionHash": "0x577848ebb431e886941cd52784a698caf8fac8d7580f39f7a5c4a5a562c982f5",
          "transactionIndex": "0x3b",
          "logIndex": "0xac",
          "removed": false
        },
        {
          "address": "0x20fc000000000000000000000000000000000000",
          "topics": [
            "0xaa63cb9ce3fadcd8a4edeec3460c4b3930e838803f6220fa00cb93dacdd63e01",
            "0x00000000000000000000000020c00000000000000000000000000000001a55c2",
            "0x00000000000000000000000000000000000000000000000000000000001a55c2"
          ],
          "data": "0x00000000000000000000000000000000000000000000000000000000000000a000000000000000000000000000000000000000000000000000000000000000e0000000000000000000000000000000000000000000000000000000000000012000000000000000000000000020c000000000000000000000000000000000000000000000000000000000000006a9f4629b75032f16d5e03b9672d8f11fa93ae300000000000000000000000000000000000000000000000000000000000000024e6f00000000000000000000000000000000000000000000000000000000000000000000000000000000000000000000000000000000000000000000000000024e4f00000000000000000000000000000000000000000000000000000000000000000000000000000000000000000000000000000000000000000000000000055645525345000000000000000000000000000000000000000000000000000000",
          "blockHash": "0xee6bb58a38775c29f2981c8da697d6e361c1069a6a5e6ee34b4b7e4956ce5a72",
          "blockNumber": "0x85e6d3",
          "blockTimestamp": "0x695ad668",
          "transactionHash": "0x577848ebb431e886941cd52784a698caf8fac8d7580f39f7a5c4a5a562c982f5",
          "transactionIndex": "0x3b",
          "logIndex": "0xad",
          "removed": false
        },
        {
          "address": "0x20c00000000000000000000000000000001a55c1",
          "topics": [
            "0x4811f35680ba814bed6b0b926a2949c8a1000f4f2443cfe9978745d46a251aec",
            "0x114e74f6ea3bd819998f78687bfcb11b140da08e9b7d222fa9c1f1ba1f2aa122",
            "0x00000000000000000000000006a9f4629b75032f16d5e03b9672d8f11fa93ae3",
            "0x00000000000000000000000006a9f4629b75032f16d5e03b9672d8f11fa93ae3"
          ],
          "data": "0x0000000000000000000000000000000000000000000000000000000000000001",
          "blockHash": "0xee6bb58a38775c29f2981c8da697d6e361c1069a6a5e6ee34b4b7e4956ce5a72",
          "blockNumber": "0x85e6d3",
          "blockTimestamp": "0x695ad668",
          "transactionHash": "0x577848ebb431e886941cd52784a698caf8fac8d7580f39f7a5c4a5a562c982f5",
          "transactionIndex": "0x3b",
          "logIndex": "0xae",
          "removed": false
        },
        {
          "address": "0x20c00000000000000000000000000000001a55c2",
          "topics": [
            "0x4811f35680ba814bed6b0b926a2949c8a1000f4f2443cfe9978745d46a251aec",
            "0x114e74f6ea3bd819998f78687bfcb11b140da08e9b7d222fa9c1f1ba1f2aa122",
            "0x00000000000000000000000006a9f4629b75032f16d5e03b9672d8f11fa93ae3",
            "0x00000000000000000000000006a9f4629b75032f16d5e03b9672d8f11fa93ae3"
          ],
          "data": "0x0000000000000000000000000000000000000000000000000000000000000001",
          "blockHash": "0xee6bb58a38775c29f2981c8da697d6e361c1069a6a5e6ee34b4b7e4956ce5a72",
          "blockNumber": "0x85e6d3",
          "blockTimestamp": "0x695ad668",
          "transactionHash": "0x577848ebb431e886941cd52784a698caf8fac8d7580f39f7a5c4a5a562c982f5",
          "transactionIndex": "0x3b",
          "logIndex": "0xaf",
          "removed": false
        },
        {
          "address": "0x06a9f4629b75032f16d5e03b9672d8f11fa93ae3",
          "topics": [
            "0x9e431caef5753e3e939653fc056c910725980029b3653db5a36bebca71d6bc2c",
            "0x19d6ef2158afe2b1dbb08cbe7e0404ae16549c8573fd645ffb275feec728c743",
            "0x00000000000000000000000020c0000000000000000000000000000000000000"
          ],
          "data": "0x00000000000000000000000020c00000000000000000000000000000001a55c100000000000000000000000020c00000000000000000000000000000001a55c2",
          "blockHash": "0xee6bb58a38775c29f2981c8da697d6e361c1069a6a5e6ee34b4b7e4956ce5a72",
          "blockNumber": "0x85e6d3",
          "blockTimestamp": "0x695ad668",
          "transactionHash": "0x577848ebb431e886941cd52784a698caf8fac8d7580f39f7a5c4a5a562c982f5",
          "transactionIndex": "0x3b",
          "logIndex": "0xb0",
          "removed": false
        },
        {
          "address": "0x20c0000000000000000000000000000000000000",
          "topics": [
            "0xddf252ad1be2c89b69c2b068fc378daa952ba7f163c4a11628f55a4df523b3ef",
            "0x000000000000000000000000f6dc8446dfc303999c5d9cb932dd54948253747e",
            "0x000000000000000000000000feec000000000000000000000000000000000000"
          ],
          "data": "0x000000000000000000000000000000000000000000000000000000000000171e",
          "blockHash": "0xee6bb58a38775c29f2981c8da697d6e361c1069a6a5e6ee34b4b7e4956ce5a72",
          "blockNumber": "0x85e6d3",
          "blockTimestamp": "0x695ad668",
          "transactionHash": "0x577848ebb431e886941cd52784a698caf8fac8d7580f39f7a5c4a5a562c982f5",
          "transactionIndex": "0x3b",
          "logIndex": "0xb1",
          "removed": false
        }
      ],
      "logsBloom": "0x000000000400000000000000000000001000000000000000000000080080000000000c000000000000000000018000000000000000000000000000004000000000800600000000000000000a000000000001000000800000080000000400000000000000000000000000000000000000000000000010000000000050100000000000000000200000000000000020040000000100800000000004000000080000000020000000100000000004000000000000001000000000000000040001000040000002000000002002000020010000000008000000000000020000002040001000000204000000010000a00000400000000000000000000200001000000200",
      "transactionHash": "0x577848ebb431e886941cd52784a698caf8fac8d7580f39f7a5c4a5a562c982f5",
      "transactionIndex": "0x3b",
      "blockHash": "0xee6bb58a38775c29f2981c8da697d6e361c1069a6a5e6ee34b4b7e4956ce5a72",
      "blockNumber": "0x85e6d3",
      "gasUsed": "0x90772",
      "effectiveGasPrice": "0x2540e841e",
      "from": "0xf6dc8446dfc303999c5d9cb932dd54948253747e",
      "to": "0x06a9f4629b75032f16d5e03b9672d8f11fa93ae3",
      "contractAddress": null,
      "feeToken": "0x20c0000000000000000000000000000000000000",
      "feePayer": "0xf6dc8446dfc303999c5d9cb932dd54948253747e"
    },
    {
      "type": "0x2",
      "status": "0x1",
      "cumulativeGasUsed": "0x70f70a",
      "logs": [
        {
          "address": "0x20fc000000000000000000000000000000000000",
          "topics": [
            "0xaa63cb9ce3fadcd8a4edeec3460c4b3930e838803f6220fa00cb93dacdd63e01",
            "0x00000000000000000000000020c00000000000000000000000000000001a55c3",
            "0x00000000000000000000000000000000000000000000000000000000001a55c3"
          ],
          "data": "0x00000000000000000000000000000000000000000000000000000000000000a000000000000000000000000000000000000000000000000000000000000000e0000000000000000000000000000000000000000000000000000000000000012000000000000000000000000020c000000000000000000000000000000000000000000000000000000000000006a9f4629b75032f16d5e03b9672d8f11fa93ae3000000000000000000000000000000000000000000000000000000000000000359657300000000000000000000000000000000000000000000000000000000000000000000000000000000000000000000000000000000000000000000000003594553000000000000000000000000000000000000000000000000000000000000000000000000000000000000000000000000000000000000000000000000055645525345000000000000000000000000000000000000000000000000000000",
          "blockHash": "0xee6bb58a38775c29f2981c8da697d6e361c1069a6a5e6ee34b4b7e4956ce5a72",
          "blockNumber": "0x85e6d3",
          "blockTimestamp": "0x695ad668",
          "transactionHash": "0x1d18833812107b4e48067497b38ef0d252ee3ec4ea19936312f442dd8a064745",
          "transactionIndex": "0x3c",
          "logIndex": "0xb2",
          "removed": false
        },
        {
          "address": "0x20fc000000000000000000000000000000000000",
          "topics": [
            "0xaa63cb9ce3fadcd8a4edeec3460c4b3930e838803f6220fa00cb93dacdd63e01",
            "0x00000000000000000000000020c00000000000000000000000000000001a55c4",
            "0x00000000000000000000000000000000000000000000000000000000001a55c4"
          ],
          "data": "0x00000000000000000000000000000000000000000000000000000000000000a000000000000000000000000000000000000000000000000000000000000000e0000000000000000000000000000000000000000000000000000000000000012000000000000000000000000020c000000000000000000000000000000000000000000000000000000000000006a9f4629b75032f16d5e03b9672d8f11fa93ae300000000000000000000000000000000000000000000000000000000000000024e6f00000000000000000000000000000000000000000000000000000000000000000000000000000000000000000000000000000000000000000000000000024e4f00000000000000000000000000000000000000000000000000000000000000000000000000000000000000000000000000000000000000000000000000055645525345000000000000000000000000000000000000000000000000000000",
          "blockHash": "0xee6bb58a38775c29f2981c8da697d6e361c1069a6a5e6ee34b4b7e4956ce5a72",
          "blockNumber": "0x85e6d3",
          "blockTimestamp": "0x695ad668",
          "transactionHash": "0x1d18833812107b4e48067497b38ef0d252ee3ec4ea19936312f442dd8a064745",
          "transactionIndex": "0x3c",
          "logIndex": "0xb3",
          "removed": false
        },
        {
          "address": "0x20c00000000000000000000000000000001a55c3",
          "topics": [
            "0x4811f35680ba814bed6b0b926a2949c8a1000f4f2443cfe9978745d46a251aec",
            "0x114e74f6ea3bd819998f78687bfcb11b140da08e9b7d222fa9c1f1ba1f2aa122",
            "0x00000000000000000000000006a9f4629b75032f16d5e03b9672d8f11fa93ae3",
            "0x00000000000000000000000006a9f4629b75032f16d5e03b9672d8f11fa93ae3"
          ],
          "data": "0x0000000000000000000000000000000000000000000000000000000000000001",
          "blockHash": "0xee6bb58a38775c29f2981c8da697d6e361c1069a6a5e6ee34b4b7e4956ce5a72",
          "blockNumber": "0x85e6d3",
          "blockTimestamp": "0x695ad668",
          "transactionHash": "0x1d18833812107b4e48067497b38ef0d252ee3ec4ea19936312f442dd8a064745",
          "transactionIndex": "0x3c",
          "logIndex": "0xb4",
          "removed": false
        },
        {
          "address": "0x20c00000000000000000000000000000001a55c4",
          "topics": [
            "0x4811f35680ba814bed6b0b926a2949c8a1000f4f2443cfe9978745d46a251aec",
            "0x114e74f6ea3bd819998f78687bfcb11b140da08e9b7d222fa9c1f1ba1f2aa122",
            "0x00000000000000000000000006a9f4629b75032f16d5e03b9672d8f11fa93ae3",
            "0x00000000000000000000000006a9f4629b75032f16d5e03b9672d8f11fa93ae3"
          ],
          "data": "0x0000000000000000000000000000000000000000000000000000000000000001",
          "blockHash": "0xee6bb58a38775c29f2981c8da697d6e361c1069a6a5e6ee34b4b7e4956ce5a72",
          "blockNumber": "0x85e6d3",
          "blockTimestamp": "0x695ad668",
          "transactionHash": "0x1d18833812107b4e48067497b38ef0d252ee3ec4ea19936312f442dd8a064745",
          "transactionIndex": "0x3c",
          "logIndex": "0xb5",
          "removed": false
        },
        {
          "address": "0x06a9f4629b75032f16d5e03b9672d8f11fa93ae3",
          "topics": [
            "0x9e431caef5753e3e939653fc056c910725980029b3653db5a36bebca71d6bc2c",
            "0x07b9a25c657a8faa88088eee7530f016c6ebc2fbf94e9307f7563b315c6e6091",
            "0x00000000000000000000000020c0000000000000000000000000000000000000"
          ],
          "data": "0x00000000000000000000000020c00000000000000000000000000000001a55c300000000000000000000000020c00000000000000000000000000000001a55c4",
          "blockHash": "0xee6bb58a38775c29f2981c8da697d6e361c1069a6a5e6ee34b4b7e4956ce5a72",
          "blockNumber": "0x85e6d3",
          "blockTimestamp": "0x695ad668",
          "transactionHash": "0x1d18833812107b4e48067497b38ef0d252ee3ec4ea19936312f442dd8a064745",
          "transactionIndex": "0x3c",
          "logIndex": "0xb6",
          "removed": false
        },
        {
          "address": "0x20c0000000000000000000000000000000000000",
          "topics": [
            "0xddf252ad1be2c89b69c2b068fc378daa952ba7f163c4a11628f55a4df523b3ef",
            "0x000000000000000000000000f6dc8446dfc303999c5d9cb932dd54948253747e",
            "0x000000000000000000000000feec000000000000000000000000000000000000"
          ],
          "data": "0x000000000000000000000000000000000000000000000000000000000000171e",
          "blockHash": "0xee6bb58a38775c29f2981c8da697d6e361c1069a6a5e6ee34b4b7e4956ce5a72",
          "blockNumber": "0x85e6d3",
          "blockTimestamp": "0x695ad668",
          "transactionHash": "0x1d18833812107b4e48067497b38ef0d252ee3ec4ea19936312f442dd8a064745",
          "transactionIndex": "0x3c",
          "logIndex": "0xb7",
          "removed": false
        }
      ],
      "logsBloom": "0x000000000400000000000040000000021000000001000001000000080084000000000c00000000000000000001800000000000000000000000000000200000000000060000000000000000080000000000010000000002000a8000000400200000000000000000000000000000000004000002000010000000000050100000000000000000000000000000000020040000000000800000000000000000000001000020000000100000000000000000000000000000000000000000048001000040000002000800000002000000011000800008000000000000020002000004001000000004000000000000200000000000000000000001000000001000000000",
      "transactionHash": "0x1d18833812107b4e48067497b38ef0d252ee3ec4ea19936312f442dd8a064745",
      "transactionIndex": "0x3c",
      "blockHash": "0xee6bb58a38775c29f2981c8da697d6e361c1069a6a5e6ee34b4b7e4956ce5a72",
      "blockNumber": "0x85e6d3",
      "gasUsed": "0x90772",
      "effectiveGasPrice": "0x2540e841e",
      "from": "0xf6dc8446dfc303999c5d9cb932dd54948253747e",
      "to": "0x06a9f4629b75032f16d5e03b9672d8f11fa93ae3",
      "contractAddress": null,
      "feeToken": "0x20c0000000000000000000000000000000000000",
      "feePayer": "0xf6dc8446dfc303999c5d9cb932dd54948253747e"
    },
    {
      "type": "0x2",
      "status": "0x1",
      "cumulativeGasUsed": "0x79fe7c",
      "logs": [
        {
          "address": "0x20fc000000000000000000000000000000000000",
          "topics": [
            "0xaa63cb9ce3fadcd8a4edeec3460c4b3930e838803f6220fa00cb93dacdd63e01",
            "0x00000000000000000000000020c00000000000000000000000000000001a55c5",
            "0x00000000000000000000000000000000000000000000000000000000001a55c5"
          ],
          "data": "0x00000000000000000000000000000000000000000000000000000000000000a000000000000000000000000000000000000000000000000000000000000000e0000000000000000000000000000000000000000000000000000000000000012000000000000000000000000020c000000000000000000000000000000000000000000000000000000000000006a9f4629b75032f16d5e03b9672d8f11fa93ae3000000000000000000000000000000000000000000000000000000000000000359657300000000000000000000000000000000000000000000000000000000000000000000000000000000000000000000000000000000000000000000000003594553000000000000000000000000000000000000000000000000000000000000000000000000000000000000000000000000000000000000000000000000055645525345000000000000000000000000000000000000000000000000000000",
          "blockHash": "0xee6bb58a38775c29f2981c8da697d6e361c1069a6a5e6ee34b4b7e4956ce5a72",
          "blockNumber": "0x85e6d3",
          "blockTimestamp": "0x695ad668",
          "transactionHash": "0x25d31a276fb346bb107f1ac47d5a5ba043df2b84cfbb7b64e7f6b7c50abb8d6e",
          "transactionIndex": "0x3d",
          "logIndex": "0xb8",
          "removed": false
        },
        {
          "address": "0x20fc000000000000000000000000000000000000",
          "topics": [
            "0xaa63cb9ce3fadcd8a4edeec3460c4b3930e838803f6220fa00cb93dacdd63e01",
            "0x00000000000000000000000020c00000000000000000000000000000001a55c6",
            "0x00000000000000000000000000000000000000000000000000000000001a55c6"
          ],
          "data": "0x00000000000000000000000000000000000000000000000000000000000000a000000000000000000000000000000000000000000000000000000000000000e0000000000000000000000000000000000000000000000000000000000000012000000000000000000000000020c000000000000000000000000000000000000000000000000000000000000006a9f4629b75032f16d5e03b9672d8f11fa93ae300000000000000000000000000000000000000000000000000000000000000024e6f00000000000000000000000000000000000000000000000000000000000000000000000000000000000000000000000000000000000000000000000000024e4f00000000000000000000000000000000000000000000000000000000000000000000000000000000000000000000000000000000000000000000000000055645525345000000000000000000000000000000000000000000000000000000",
          "blockHash": "0xee6bb58a38775c29f2981c8da697d6e361c1069a6a5e6ee34b4b7e4956ce5a72",
          "blockNumber": "0x85e6d3",
          "blockTimestamp": "0x695ad668",
          "transactionHash": "0x25d31a276fb346bb107f1ac47d5a5ba043df2b84cfbb7b64e7f6b7c50abb8d6e",
          "transactionIndex": "0x3d",
          "logIndex": "0xb9",
          "removed": false
        },
        {
          "address": "0x20c00000000000000000000000000000001a55c5",
          "topics": [
            "0x4811f35680ba814bed6b0b926a2949c8a1000f4f2443cfe9978745d46a251aec",
            "0x114e74f6ea3bd819998f78687bfcb11b140da08e9b7d222fa9c1f1ba1f2aa122",
            "0x00000000000000000000000006a9f4629b75032f16d5e03b9672d8f11fa93ae3",
            "0x00000000000000000000000006a9f4629b75032f16d5e03b9672d8f11fa93ae3"
          ],
          "data": "0x0000000000000000000000000000000000000000000000000000000000000001",
          "blockHash": "0xee6bb58a38775c29f2981c8da697d6e361c1069a6a5e6ee34b4b7e4956ce5a72",
          "blockNumber": "0x85e6d3",
          "blockTimestamp": "0x695ad668",
          "transactionHash": "0x25d31a276fb346bb107f1ac47d5a5ba043df2b84cfbb7b64e7f6b7c50abb8d6e",
          "transactionIndex": "0x3d",
          "logIndex": "0xba",
          "removed": false
        },
        {
          "address": "0x20c00000000000000000000000000000001a55c6",
          "topics": [
            "0x4811f35680ba814bed6b0b926a2949c8a1000f4f2443cfe9978745d46a251aec",
            "0x114e74f6ea3bd819998f78687bfcb11b140da08e9b7d222fa9c1f1ba1f2aa122",
            "0x00000000000000000000000006a9f4629b75032f16d5e03b9672d8f11fa93ae3",
            "0x00000000000000000000000006a9f4629b75032f16d5e03b9672d8f11fa93ae3"
          ],
          "data": "0x0000000000000000000000000000000000000000000000000000000000000001",
          "blockHash": "0xee6bb58a38775c29f2981c8da697d6e361c1069a6a5e6ee34b4b7e4956ce5a72",
          "blockNumber": "0x85e6d3",
          "blockTimestamp": "0x695ad668",
          "transactionHash": "0x25d31a276fb346bb107f1ac47d5a5ba043df2b84cfbb7b64e7f6b7c50abb8d6e",
          "transactionIndex": "0x3d",
          "logIndex": "0xbb",
          "removed": false
        },
        {
          "address": "0x06a9f4629b75032f16d5e03b9672d8f11fa93ae3",
          "topics": [
            "0x9e431caef5753e3e939653fc056c910725980029b3653db5a36bebca71d6bc2c",
            "0x0d6a44bcf3409c34e06c20994fd4c74d542b7470e9f3aef99973adad43e7e08d",
            "0x00000000000000000000000020c0000000000000000000000000000000000000"
          ],
          "data": "0x00000000000000000000000020c00000000000000000000000000000001a55c500000000000000000000000020c00000000000000000000000000000001a55c6",
          "blockHash": "0xee6bb58a38775c29f2981c8da697d6e361c1069a6a5e6ee34b4b7e4956ce5a72",
          "blockNumber": "0x85e6d3",
          "blockTimestamp": "0x695ad668",
          "transactionHash": "0x25d31a276fb346bb107f1ac47d5a5ba043df2b84cfbb7b64e7f6b7c50abb8d6e",
          "transactionIndex": "0x3d",
          "logIndex": "0xbc",
          "removed": false
        },
        {
          "address": "0x20c0000000000000000000000000000000000000",
          "topics": [
            "0xddf252ad1be2c89b69c2b068fc378daa952ba7f163c4a11628f55a4df523b3ef",
            "0x000000000000000000000000f6dc8446dfc303999c5d9cb932dd54948253747e",
            "0x000000000000000000000000feec000000000000000000000000000000000000"
          ],
          "data": "0x000000000000000000000000000000000000000000000000000000000000171e",
          "blockHash": "0xee6bb58a38775c29f2981c8da697d6e361c1069a6a5e6ee34b4b7e4956ce5a72",
          "blockNumber": "0x85e6d3",
          "blockTimestamp": "0x695ad668",
          "transactionHash": "0x25d31a276fb346bb107f1ac47d5a5ba043df2b84cfbb7b64e7f6b7c50abb8d6e",
          "transactionIndex": "0x3d",
          "logIndex": "0xbd",
          "removed": false
        }
      ],
      "logsBloom": "0x000000000400080000000000000000001000000000000000000200080080000000000c0000000000000000000180000000000040000000000000000000000000000006000000000000000008000101000001000000000001080000008400000000000000000000000000000000000000008000000010000000000050100000000000200000000000000000000020040000000000800000000000000000000000000060000000300080000000000000000000000000000000400040040001000048000002000000000002000000010000000008002000000400020000000000001000000004000000000000200000000080000000002000000000041000004000",
      "transactionHash": "0x25d31a276fb346bb107f1ac47d5a5ba043df2b84cfbb7b64e7f6b7c50abb8d6e",
      "transactionIndex": "0x3d",
      "blockHash": "0xee6bb58a38775c29f2981c8da697d6e361c1069a6a5e6ee34b4b7e4956ce5a72",
      "blockNumber": "0x85e6d3",
      "gasUsed": "0x90772",
      "effectiveGasPrice": "0x2540e841e",
      "from": "0xf6dc8446dfc303999c5d9cb932dd54948253747e",
      "to": "0x06a9f4629b75032f16d5e03b9672d8f11fa93ae3",
      "contractAddress": null,
      "feeToken": "0x20c0000000000000000000000000000000000000",
      "feePayer": "0xf6dc8446dfc303999c5d9cb932dd54948253747e"
    },
    {
      "type": "0x2",
      "status": "0x1",
      "cumulativeGasUsed": "0x8305ee",
      "logs": [
        {
          "address": "0x20fc000000000000000000000000000000000000",
          "topics": [
            "0xaa63cb9ce3fadcd8a4edeec3460c4b3930e838803f6220fa00cb93dacdd63e01",
            "0x00000000000000000000000020c00000000000000000000000000000001a55c7",
            "0x00000000000000000000000000000000000000000000000000000000001a55c7"
          ],
          "data": "0x00000000000000000000000000000000000000000000000000000000000000a000000000000000000000000000000000000000000000000000000000000000e0000000000000000000000000000000000000000000000000000000000000012000000000000000000000000020c000000000000000000000000000000000000000000000000000000000000006a9f4629b75032f16d5e03b9672d8f11fa93ae3000000000000000000000000000000000000000000000000000000000000000359657300000000000000000000000000000000000000000000000000000000000000000000000000000000000000000000000000000000000000000000000003594553000000000000000000000000000000000000000000000000000000000000000000000000000000000000000000000000000000000000000000000000055645525345000000000000000000000000000000000000000000000000000000",
          "blockHash": "0xee6bb58a38775c29f2981c8da697d6e361c1069a6a5e6ee34b4b7e4956ce5a72",
          "blockNumber": "0x85e6d3",
          "blockTimestamp": "0x695ad668",
          "transactionHash": "0x69cfc5b70cc5a0b4d748999df868fcdf67b9d0583f3fabd45e7caa6bce520107",
          "transactionIndex": "0x3e",
          "logIndex": "0xbe",
          "removed": false
        },
        {
          "address": "0x20fc000000000000000000000000000000000000",
          "topics": [
            "0xaa63cb9ce3fadcd8a4edeec3460c4b3930e838803f6220fa00cb93dacdd63e01",
            "0x00000000000000000000000020c00000000000000000000000000000001a55c8",
            "0x00000000000000000000000000000000000000000000000000000000001a55c8"
          ],
          "data": "0x00000000000000000000000000000000000000000000000000000000000000a000000000000000000000000000000000000000000000000000000000000000e0000000000000000000000000000000000000000000000000000000000000012000000000000000000000000020c000000000000000000000000000000000000000000000000000000000000006a9f4629b75032f16d5e03b9672d8f11fa93ae300000000000000000000000000000000000000000000000000000000000000024e6f00000000000000000000000000000000000000000000000000000000000000000000000000000000000000000000000000000000000000000000000000024e4f00000000000000000000000000000000000000000000000000000000000000000000000000000000000000000000000000000000000000000000000000055645525345000000000000000000000000000000000000000000000000000000",
          "blockHash": "0xee6bb58a38775c29f2981c8da697d6e361c1069a6a5e6ee34b4b7e4956ce5a72",
          "blockNumber": "0x85e6d3",
          "blockTimestamp": "0x695ad668",
          "transactionHash": "0x69cfc5b70cc5a0b4d748999df868fcdf67b9d0583f3fabd45e7caa6bce520107",
          "transactionIndex": "0x3e",
          "logIndex": "0xbf",
          "removed": false
        },
        {
          "address": "0x20c00000000000000000000000000000001a55c7",
          "topics": [
            "0x4811f35680ba814bed6b0b926a2949c8a1000f4f2443cfe9978745d46a251aec",
            "0x114e74f6ea3bd819998f78687bfcb11b140da08e9b7d222fa9c1f1ba1f2aa122",
            "0x00000000000000000000000006a9f4629b75032f16d5e03b9672d8f11fa93ae3",
            "0x00000000000000000000000006a9f4629b75032f16d5e03b9672d8f11fa93ae3"
          ],
          "data": "0x0000000000000000000000000000000000000000000000000000000000000001",
          "blockHash": "0xee6bb58a38775c29f2981c8da697d6e361c1069a6a5e6ee34b4b7e4956ce5a72",
          "blockNumber": "0x85e6d3",
          "blockTimestamp": "0x695ad668",
          "transactionHash": "0x69cfc5b70cc5a0b4d748999df868fcdf67b9d0583f3fabd45e7caa6bce520107",
          "transactionIndex": "0x3e",
          "logIndex": "0xc0",
          "removed": false
        },
        {
          "address": "0x20c00000000000000000000000000000001a55c8",
          "topics": [
            "0x4811f35680ba814bed6b0b926a2949c8a1000f4f2443cfe9978745d46a251aec",
            "0x114e74f6ea3bd819998f78687bfcb11b140da08e9b7d222fa9c1f1ba1f2aa122",
            "0x00000000000000000000000006a9f4629b75032f16d5e03b9672d8f11fa93ae3",
            "0x00000000000000000000000006a9f4629b75032f16d5e03b9672d8f11fa93ae3"
          ],
          "data": "0x0000000000000000000000000000000000000000000000000000000000000001",
          "blockHash": "0xee6bb58a38775c29f2981c8da697d6e361c1069a6a5e6ee34b4b7e4956ce5a72",
          "blockNumber": "0x85e6d3",
          "blockTimestamp": "0x695ad668",
          "transactionHash": "0x69cfc5b70cc5a0b4d748999df868fcdf67b9d0583f3fabd45e7caa6bce520107",
          "transactionIndex": "0x3e",
          "logIndex": "0xc1",
          "removed": false
        },
        {
          "address": "0x06a9f4629b75032f16d5e03b9672d8f11fa93ae3",
          "topics": [
            "0x9e431caef5753e3e939653fc056c910725980029b3653db5a36bebca71d6bc2c",
            "0x906372e4f4a4f64769e676f7f9db1f2d8c064c04598c46440e9d2a1c108836a9",
            "0x00000000000000000000000020c0000000000000000000000000000000000000"
          ],
          "data": "0x00000000000000000000000020c00000000000000000000000000000001a55c700000000000000000000000020c00000000000000000000000000000001a55c8",
          "blockHash": "0xee6bb58a38775c29f2981c8da697d6e361c1069a6a5e6ee34b4b7e4956ce5a72",
          "blockNumber": "0x85e6d3",
          "blockTimestamp": "0x695ad668",
          "transactionHash": "0x69cfc5b70cc5a0b4d748999df868fcdf67b9d0583f3fabd45e7caa6bce520107",
          "transactionIndex": "0x3e",
          "logIndex": "0xc2",
          "removed": false
        },
        {
          "address": "0x20c0000000000000000000000000000000000000",
          "topics": [
            "0xddf252ad1be2c89b69c2b068fc378daa952ba7f163c4a11628f55a4df523b3ef",
            "0x000000000000000000000000f6dc8446dfc303999c5d9cb932dd54948253747e",
            "0x000000000000000000000000feec000000000000000000000000000000000000"
          ],
          "data": "0x000000000000000000000000000000000000000000000000000000000000171e",
          "blockHash": "0xee6bb58a38775c29f2981c8da697d6e361c1069a6a5e6ee34b4b7e4956ce5a72",
          "blockNumber": "0x85e6d3",
          "blockTimestamp": "0x695ad668",
          "transactionHash": "0x69cfc5b70cc5a0b4d748999df868fcdf67b9d0583f3fabd45e7caa6bce520107",
          "transactionIndex": "0x3e",
          "logIndex": "0xc3",
          "removed": false
        }
      ],
      "logsBloom": "0x008000000400000000000000000000001000008000000000000000080080000000000c0000000000011002000180000000000080000000000000000000000000000006000000000000000808000000000001000000000000080000000400000000000000040000000000000000000000000000000010000000000050100000000000000000000000000000000020040000000000808000000000000000000000200020000000100000000000002000000000000000002000000000040003100040000002000000000002000200010000000008012000000000020000000000001002000004000000000000200002000000000000000000000000001000000000",
      "transactionHash": "0x69cfc5b70cc5a0b4d748999df868fcdf67b9d0583f3fabd45e7caa6bce520107",
      "transactionIndex": "0x3e",
      "blockHash": "0xee6bb58a38775c29f2981c8da697d6e361c1069a6a5e6ee34b4b7e4956ce5a72",
      "blockNumber": "0x85e6d3",
      "gasUsed": "0x90772",
      "effectiveGasPrice": "0x2540e841e",
      "from": "0xf6dc8446dfc303999c5d9cb932dd54948253747e",
      "to": "0x06a9f4629b75032f16d5e03b9672d8f11fa93ae3",
      "contractAddress": null,
      "feeToken": "0x20c0000000000000000000000000000000000000",
      "feePayer": "0xf6dc8446dfc303999c5d9cb932dd54948253747e"
    }
  ],
  "libraries": [],
  "pending": [],
  "returns": {},
  "timestamp": 1767560809148,
  "chain": 42429,
  "commit": "f213205"
}